:10000000F01F001029010000C11C0000C11C0000ED
:10001000C11C0000C11C0000C11C0000C11C00006C
:10002000C11C0000C11C0000C11C0000C11C00005C
:10003000C11C0000C11C0000C11C0000C11C00004C
:10004000C11C0000C11C0000C11C0000C11C00003C
:10005000C11C0000C11C0000C11C0000C11C00002C
:10006000C11C0000C11C0000C11C0000C11C00001C
:10007000C11C000081130000C11C0000C11C000055
:1000800079070000C11C0000C11C0000C11C000059
:10009000C11C0000C11C0000C11C0000C11C0000EC
:1000A000C11C0000C11C0000C11C0000C11C0000DC
:1000B000C11C0000C11C0000C11C0000C11C0000CC
:1000C0009421000000000010A0000000A00000101B
:1000D00094000000F0B5114B114CA34204D300244E
:1000E000104883420FD3F0BD196858680A009E6813
:1000F000401A8718551AAE4201D80C33EDE715683F
:1001000004323D60F5E719685E680A00551AAE4290
:1001100001D80833E5E714600432F7E7C0000000B7
:10012000CC000000D400000010B5FFF7D3FF01F0B1
:10013000A3FEBFF34F8F034B034ADA60BFF34F8F29
:10014000FEE7C04600ED00E00400FA05FFFFFFFFF8
:10015000FFFFFFFFFFFFFFFFFFFFFFFFFFFFFFFFAF
:10016000FFFFFFFFFFFFFFFFFFFFFFFFFFFFFFFF9F
:10017000FFFFFFFFFFFFFFFFFFFFFFFFFFFFFFFF8F
:10018000FFFFFFFFFFFFFFFFFFFFFFFFFFFFFFFF7F
:10019000FFFFFFFFFFFFFFFFFFFFFFFFFFFFFFFF6F
:1001A000FFFFFFFFFFFFFFFFFFFFFFFFFFFFFFFF5F
:1001B000FFFFFFFFFFFFFFFFFFFFFFFFFFFFFFFF4F
:1001C000FFFFFFFFFFFFFFFFFFFFFFFFFFFFFFFF3F
:1001D000FFFFFFFFFFFFFFFFFFFFFFFFFFFFFFFF2F
:1001E000FFFFFFFFFFFFFFFFFFFFFFFFFFFFFFFF1F
:1001F000FFFFFFFFFFFFFFFFFFFFFFFFFFFFFFFF0F
:10020000FFFFFFFFFFFFFFFFFFFFFFFFFFFFFFFFFE
:10021000FFFFFFFFFFFFFFFFFFFFFFFFFFFFFFFFEE
:10022000FFFFFFFFFFFFFFFFFFFFFFFFFFFFFFFFDE
:10023000FFFFFFFFFFFFFFFFFFFFFFFFFFFFFFFFCE
:10024000FFFFFFFFFFFFFFFFFFFFFFFFFFFFFFFFBE
:10025000FFFFFFFFFFFFFFFFFFFFFFFFFFFFFFFFAE
:10026000FFFFFFFFFFFFFFFFFFFFFFFFFFFFFFFF9E
:10027000FFFFFFFFFFFFFFFFFFFFFFFFFFFFFFFF8E
:10028000FFFFFFFFFFFFFFFFFFFFFFFFFFFFFFFF7E
:10029000FFFFFFFFFFFFFFFFFFFFFFFFFFFFFFFF6E
:1002A000FFFFFFFFFFFFFFFFFFFFFFFFFFFFFFFF5E
:1002B000FFFFFFFFFFFFFFFFFFFFFFFFFFFFFFFF4E
:1002C000FFFFFFFFFFFFFFFFFFFFFFFFFFFFFFFF3E
:1002D000FFFFFFFFFFFFFFFFFFFFFFFFFFFFFFFF2E
:1002E000FFFFFFFFFFFFFFFFFFFFFFFFFFFFFFFF1E
:1002F000FFFFFFFFFFFFFFFFFFFFFFFFFFFFFFFF0E
:1003000010B501F015FD00F069F800F01BFC0023AA
:100310002F4C237001F0D4FBFF281BD101F018FCF7
:10032000830711D4012001F07CFD642001F0ECF979
:10033000012001F07BFD274801F0E6F900F016FCF2
:10034000112801D100F060FC00F0B8FA2378002BEE
:1003500002D105E0022812D000F062FC00232370D5
:1003600000F0FAFB00F03CF800F000FC112809D086
:100370000021194801F002FC01F0C2FBFEE7012355
:100380002370E1E700F0FEFB04000021124801F0B9
:10039000F5FB0121104801F027FC01210E4801F076
:1003A00031FC03210C4801F0E9FB21000A4801F06F
:1003B000F3FB012001F0AEFB01F0BAFB04000020CA
:1003C00001F0A8FBA006C00F01F06AFB002010BDE1
:1003D000A0000010B80B0000004005407047FFFF70
:1003E00010B50121014801F061FA10BD0040034041
:1003F00070B50500080011001A0004AB1B78002B33
:1004000013D0069B00F020FB040001F079FD1F21B2
:100410006943CE31431C2200FF31074801F072FAD4
:100420000121054801F042FA70BD059B069C1B1B8B
:10043000013300F023FBE7E70040034003001F20E7
:100440005843014BC0187047CD01003070B50C0007
:1004500015006A26012809D0061E07D0023843423B
:1004600058410C4E40420C4B0640F618C0239B05E9
:100470002A002100F01801F003FD002809D0310006
:1004800006482B00220001F03DFA0121034801F04B
:100490000DFA70BD10FAFFFF0A060000004003408D
:1004A00010B513000C006A21012809D0011E07D0E5
:1004B00002384142484105494042054A01408918F5
:1004C0002200044801F0F6F910BDC04610FAFFFF03
:1004D0000A06000000400340092358430A000100B7
:1004E00010B5054C9231200001F00CFA01212000DA
:1004F00001F0DCF910BDC0460040034000487047E1
:1005000092000030A22230B5D3B00D00040052009A
:10051000002101A801F0ACFC002D0AD1FFF7EEFF8D
:10052000050000F03BFB09222900424301A801F02D
:1005300097FCA221200001AA490000F0AFFF002093
:1005400053B030BD13B5040000290DD100F014FBE9
:100550000190074801F02EFB009020006A46082118
:1005600000F09CFF002016BD002301930093F4E7E8
:100570000040054010B5040092B0002914D1482273
:1005800069460220FFF78CFF009B002B04D140221C
:10059000FF2101A801F06CFC20006A46482100F010
:1005A0007DFF002012B010BD002300931193EBE7F4
:1005B00013B50B001100094A04000192482B05D124
:1005C0001A000220FFF742FF00230193200001AA36
:1005D000042100F063FF002016BDC0460D0001009D
:1005E00037B5074B05000C1E019302D100F00CFB40
:1005F0000194280001AA042100F050FF00203EBD14
:100600000D0001007FB58022124C050001239200ED
:1006100020000E00104900F0FDFC0022FF200F4BCF
:1006200001A90193EB0FA842534120000B718A608E
:1006300000F015FD002D04D02A003100200000F04C
:1006400019FD200000F046FD200000F057FD0120BC
:1006500004B070BD3401001064030010602000007D
:1006600013B500231400082900D0104B01AA04215F
:10067000019300F013FF019B002B15D163792179C1
:100680001B020B43A179207809040B43E179090689
:10069000194363781B020343A07800040343E07806
:1006A0000006184300F086FA002016BD0D00010078
:1006B0008022F8B5012580270F4E104C5202331DC1
:1006C000DA6763687F00AB4339006360200001F0A4
:1006D000E5FA00F0EFFF000A0138E060A761636906
:1006E00020002B43636101F0DEFA8022636852022E
:1006F0001D4365603260F8BD00E100E000C00040CD
:1007000010B5002809D080220121054B5202DA677A
:10071000044A53688B43536010BDFFF7C9FFFBE7E2
:1007200004E100E000C0004070B5114E80223000AE
:1007300086B0183092000F4900F0E8FD00280CD177
:1007400006B070BD2B78042B07D101A9200000F062
:100750000DFE0100019800F077FF340002AD18345F
:100760002900200000F050FD0028EBD1E8E7C0464A
:1007700034010010640100100122044B1968114279
:1007800003D01A600022024B1A70704700C000406C
:10079000A1000010F0B589B000F022FC00F076FE58
:1007A000404800F075FE80223F4C920001233F49F3
:1007B000200000F02FFC3E4B05AD059301232B716B
:1007C000002329002000AB6000F049FC200000F06D
:1007D00081FC2A00374B43CB43C22900200000F0A4
:1007E00035FC00F0C3F9112804D0122841D000F0E4
:1007F000D3F80FE0304801F0DDF9070000F0C8F948
:10080000060000F0CBF9361A00F0B6F932003900D4
:1008100000F0EAF8060001F073FB3100020020004E
:1008200000F028FC200000F055FC00F0B7F9029021
:10083000002819DD0027029BDE1B052E00DD0526A2
:100840002900200000F002FC0196019BF019C01A5B
:10085000002B18DCF3432000DB171E4000F03AFCAD
:10086000029BBF19BB42E6DC200000F047FC09B048
:10087000F0BD00F081F9060000F096F901003000AB
:1008800000F096F8C6E7FFF7D9FD039001F038FBBA
:1008900003990200200000F0EDFB019B013B019356
:1008A000D3E7C046050600003401001064030010C1
:1008B00060200000542000000040054010B5FFF704
:1008C00069FFFFF7F5FE0122024B1A701A78002A21
:1008D000FCD110BDA1000010F8B50600881A0D006B
:1008E00001302021140001F0C3FA30230A272B70B5
:1008F0002D1B002E0DDD3000390001F02DFB3031B5
:1009000029553000390001F027FB013C0600002C7E
:10091000EFD1F8BDF7B504000191170077282ADD63
:10092000164B984215DC3C2101F016FB072604000B
:10093000134D38000722202101F09AFA32002900D5
:10094000380001F08DFA032201992000FFF7C4FF5F
:10095000F7BD0C4B984207DCE121090101F0FCFADC
:1009600005260400084DE4E7084901F0F5FA0426DD
:100970000400074DDDE70726064DDAE71F1C0000DF
:100980005E210000FFA202005821000080510100FA
:10099000532100006621000010B5034C03492000DC
:1009A00001F08CFA200010BDA20000108B20000086
:1009B00070B50B4C06000D0020000A4901F07EFACC
:1009C0002100300029310A22FFF786FF2200210092
:1009D000A81B40323E31FFF79DFF200070BDC0468E
:1009E000A2000010F5200000F8B5154C07000D001E
:1009F00020001449160001F061FA22002100213282
:100A00001F31E81BFFF786FF210002222F31300043
:100A1000FFF762FF21002200230035313D323E33D3
:100A2000012E07D120200870732111702E22200082
:100A30001A70F8BD732008702E2111702022F6E77D
:100A4000A2000010B520000070B50B4C1D00230063
:100A5000160022000D33081A0F321900FFF75AFF53
:100A6000300021000122FFF737FF2800E11C02229D
:100A7000FFF732FF200070BD3800001070B5134C36
:100A80001D002300160022001333081A1532190026
:100A9000FFF740FF012221003000FFF71DFF280073
:100AA000A11D0222FFF718FFE01D022D08D002222F
:100AB0000749032D06D00749012D03D0064901E05F
:100AC0002A00064901F0CCF9200070BD500000104A
:100AD000852000007F200000882000008220000088
:100AE000F0B50500002407790369013789B0FFB22A
:100AF000002B21D1AB68124E01932B7B0294009303
:100B00002A683B0071683069FFF772FC2B6800228D
:100B1000059319236B4405A91C703069240E5A7083
:100B20009A70DC700F71FFF7D7FC336901333361C2
:100B30002B68736109B0F0BD0134E4B25B08D7E7FC
:100B40000001001010B5182202490020FFF7A8FC90
:100B500010BDC0460001001010B518220249002047
:100B6000FFF774FC10BDC04600010010014B18785F
:100B70007047C04600010010014B58687047C046DE
:100B800000010010014B98687047C046000100103A
:100B9000014BD8687047C04600010010014B18692E
:100BA0007047C04600010010014B58697047C046AD
:100BB0000001001030B5124C8BB060600D000100D8
:100BC000104801F003F80323022D02D93C2D15D95A
:100BD0003C23A36000236946282201202361FFF7FC
:100BE0005FFC684600F0A8F81123E06028226946FF
:100BF00001202370FFF72AFC0BB030BDA560E9E7A8
:100C000000010010004005401022044B1A70002221
:100C10009A60DA601A615A615A60704700010010E8
:100C200000B58BB0694601202822FFF739FC08493E
:100C3000684600F0BFF8002802D11222054B1A7056
:100C4000282269460120FFF701FC0BB000BDC04619
:100C5000E10A000000010010A02010B5C00500F05E
:100C600059FE0024E1B200220748013400F097FE4B
:100C70000C2CF7D1A0218022C90512028B581B0B26
:100C80001B038B5010BDC04600400440A02010B58F
:100C9000C00500F044FE10BD0420704701207047DD
:100CA000F7B50625012445431D48A0238021285C73
:100CB000DB05844009025A58009422430024260090
:100CC0005A50009A9200D4500195154B019A9A18E7
:100CD0005279A24209DCA0218022C90512020098A3
:100CE0008B5883438B503000FEBD62199B185F7890
:100CF000102239000B4800F052FE01231A00A021F7
:100D0000BA40C90592005258002A01D1A3401E439F
:100D100000223900034800F042FE0134D5E7C04606
:100D20006E21000000400440062343430148C018E0
:100D3000407970476E210000F0B585B00400FFF7E0
:100D4000ABFF00270290FFF787FF23003D00183319
:100D50000193029B9D4204DBFFF798FF380005B02A
:100D6000F0BD002201992800FFF79AFF002306003A
:100D700020600093002E18D12800FFF7D5FF009BBC
:100D800098420AD023683200019928000393FFF7A4
:100D900087FF039B20609842E3D1009B0135FF1839
:100DA000019B043402330193D3E7731E1E40009B62
:100DB0000133DEE7F0B58DB005910390FFF76CFFCE
:100DC0000490FFF749FF00231C000293049B9C4200
:100DD00004DBFFF75BFF02980DB0F0BD039BA5009D
:100DE0005D192B68002B35D02700039B0C377F0043
:100DF000DF19012239002000FFF752FF2B6806009F
:100E0000834220D0431E9E4227D12B681E4001966C
:100E1000B34218D01B4800F0CDFE07AE079020006B
:100E20003471FFF781FFB0602000FFF737FF002328
:100E30008027336130732B68019E3F065E40002E91
:100E400013D1019B2B6000222B68002B16D1029B33
:100E50009B1802930134E4B2B8E701223900200064
:100E6000FFF71EFF33000600CDE7374204D00B9793
:100E700007A8059B7E4098477F08E0E7591E0B4076
:100E80000132E2E700400540FC2230B50F4D520030
:100E9000AB1A511E09D31C78032C04D1002905D1AB
:100EA0000021080030BD0A00F2E7002259780160F5
:100EB000FF2901D0991CF4E7032AF1DD9A78191D66
:100EC00012020260DB781A430260EAE70083054001
:100ED00010B5054C0221200000F0A6FDA121200044
:100EE000490000F072FD10BD00800540F0B585B0EE
:100EF0000392002202930AAB20CB0E791B780400E8
:100F00000F000192934203D0086800F0F9FF0190AE
:100F1000019B03225B190125754055436268EB185C
:100F20009B1880220020920093422CDCA2689A42F7
:100F300029DB227D029966753601D2010E431643E4
:100F40006A4663602368E06023611E70029E127926
:100F5000D91C012E19D16846007A5870501C98701F
:100F6000039B4D19032B12D151332B70153B1A40A3
:100F70006A7002352800019A396800F071FF01207B
:100F8000019BED18256005B0F0BD5A70E7E7039BA3
:100F9000062BEFD14F332B70BB686B70E9E7FFFF77
:100FA00010B5074C200000F014FD8823984381B24F
:100FB000200000F00AFD0122024B52421A6010BDCF
:100FC000008005401C01001010B50C2202490348A6
:100FD00000F046FF10BDC04688210000008105409A
:100FE0000122084B10B552421A60FFF771FFFFF75C
:100FF000EBFF0549054800F0F5FC8022044B920107
:101000001A6010BD1C010010FF01000000800540A7
:1010100000E100E070B50D001E0000238260036156
:10102000C360867504000C220749280000F018FFF1
:101030000C23002E00D0023BED185A1C0123256022
:101040006260237570BDC0468821000007B501238A
:10105000052201930092023AFFF748FF0EBD0123DB
:1010600007B50193023300930422013BFFF73EFFD3
:101070000EBDFFFF436870B5D31815008022040031
:101080009200002093421DDCA2689A421ADBE268BB
:10109000667DAA18864201D0FF2A13DC6360D02344
:1010A0001B06CE18E823E26020681B019E420AD886
:1010B00002002B003100064800F0FCFB01202368F1
:1010C0005D19256070BD2A0000F0CAFEF6E7C04633
:1010D0000040034010B50369C1689A785218417DF9
:1010E000D4B2002903D09C700023037510BD1212E6
:1010F0009970D9701A715C71F6E7FFFFF8B5092392
:101100004568827D04005B1B2E00002A39D00B3E0F
:10111000032E39DC23685A1C2260FE221A702368D1
:101120005F1B03231D4201D09D4304352F4B2760D5
:101130001A686560013211D01A68AA420ED20322E1
:101140001B682B489343FA582A4B1A6000F041FC65
:101150008821014389B2264800F037FC2A00390073
:10116000254800F07DFE3302244AFE2E36DD31068E
:10117000234E0E43FF2109040B4001201E4316603D
:10118000F8BD0D3E032E2DDD402221690878024373
:101190000A702268D318A27D002A12D0FE2EB9DD73
:1011A000802100220235890010008D42E8DCA27502
:1011B000991C181D320000F057FE2368023323608B
:1011C000A8E7FE2EA6DC0122191DA275981C32008C
:1011D00000F04AFE2368023D023BF0E7094E116829
:1011E0000E40CAE70268D318EDE7C0461C010010A4
:1011F0000080054020010010008105400881054065
:1012000003FF0000FF00FFFF0023F7B546684B60B7
:101210008B600400C3609E4201D100204AE0036855
:101220000825036110201A78154010409446920654
:10123000D20F0A730200571EBA419700D21B2F002B
:1012400000957D426F410732D21B9642E5DBB21A10
:1012500001925E789A78002818D00333002700980E
:10126000B84201D01F7801339019019DC019854201
:10127000D3DB281A60606546072005402800042D4E
:10128000CBD800F0DFFE0F1837CA4100D878000233
:1012900002431879000402435879063300060243DA
:1012A00012BADBE732433A43B7D10A7001209B18E8
:1012B0002360E260FEBD012EAFD1009D581C1B785B
:1012C000002D00D0C019013A542B0DD1513B0B70A9
:1012D00003785DB2002DA0DB3F2501302B408B60F1
:1012E000D21A4860C318E1E7552B96D14F3B0B70DB
:1012F000431CDBE704204B6008708E6000999B194B
:101300000029D3D0DB19D1E70520F4E7F0B587B089
:10131000040001A80D001600FFF7B6FD011E21D044
:10132000019A114B871800209F421BD8B24219DC4A
:10133000A660256062600130002A11D0280000F00C
:101340008FFD666825686368002B01DC012005E0DD
:1013500002A92000FFF758FF0028F4D1666025603D
:101360000023E36007B0F0BDFF820540C3680B6057
:10137000002B03D00368C068181A70471800FCE7F8
:10138000F7B5304D280000F028FB0600280000F0DB
:1013900019FB2C6A070028004025A4B2310000F098
:1013A00021FB25402AD1E405E40D23070AD5264B6D
:1013B0001A68013206D0254A1B681168032293433C
:1013C000234A9950C1235B001C4201D0FFF7E8FD7E
:1013D000002D01D0FFF7A8F980235B003340B2074E
:1013E00029D51C490A78002B01D0FB061DD5002AFF
:1013F00003D101200870FFF783F9F7BDFFF7D0FD97
:10140000F823FF331C40144B00251B88032BCCD042
:1014100001A8FFF739FDA842C7D0019B0F4A01354B
:101420009B18C018084B1860BFE7002AE5D00020C1
:10143000084B1870DFE7002BDFD0064B1B78002B22
:10144000DBD0F4E7008005401C01001020010010F3
:10145000008105401801001008810540007FFABF97
:1014600070B50024049DAC4201DB074808E0E500AC
:101470005D192E78864204D16D68002D01D0A847F1
:1014800070BD0134E4B2EDE7070001007047FFFFD3
:10149000014B18607047C04624010010F8B50B00DE
:1014A000050010006A460933DB08DB00D31A00AFE1
:1014B0009D4602330A008C1C0100180000F0D0FC8D
:1014C0006E4601237370054B35701B68002B02D0EC
:1014D000694620009847BD46F8BDC046240100106B
:1014E0007FB5002303930D4B06000293082500F0FF
:1014F000C3FB2840041E0DD10121094800F0D6F994
:10150000084B02941B6802AA290030000193039340
:10151000FFF7C4FF029804B070BDC0460F00010081
:1015200000400340D40F003013B5040008236A467E
:101530000549064800F0BEF920006A460821FFF779
:10154000ADFF002016BDC0469C0F000000400340C8
:101550001FB50400684600F0E7F920006A46102134
:10156000FFF79CFF002004B010BDFFFF002337B53C
:101570000500019372B6A0241348E40500F002FAB6
:10158000200000F0C7F980231B02E2580F490E48E3
:101590000A40E250E2580E490A40E2500A21022273
:1015A00000F0FDF902220B21074800F0F8F901AA2A
:1015B00004212800FFF772FF064B1878C0B20028FC
:1015C000FBD162B63EBDC04600400440FFFBFFFFBA
:1015D000FFF7FFFF6F000010002307B5042101AAE9
:1015E0000193FFF75BFFFA20400000F08DF8BFF396
:1015F0004F8F034B034ADA60BFF34F8FFEE7C046BD
:1016000000ED00E00400FA0530B50E2485B00500B9
:1016100022000021684600F02BFC01236A4669463F
:101620005380938007220B81CA8000F02FFB0A238E
:101630006B441880000C58806A4628002100FFF790
:101640002DFF002005B030BD1FB50A00002815D0C1
:1016500000291CD00C78012811DD811E02323F2C9C
:1016600008D8062300930B4B2000FFF7F9FE002853
:1016700006D11FBD07230093074BF5E70400074879
:10168000039003AA04212000FFF708FFF1E70C00F4
:10169000F5E7C04670000010000000100D000100CA
:1016A0000120034B1B6A1B075B0F98407047C04625
:1016B0000080044010B5FFF7F3FF0100014800F07F
:1016C0004BFC10BD00127A0070B50500FFF7F2FF69
:1016D000FA240100084800F03FFCA4006C4301001C
:1016E000200000F03CFC02B4E138FF38011C033953
:1016F000FDDC02BC70BDC04600CA9A3B10B5002894
:1017000001D0FFF7E1FF10BD70B5FA2504002D01EF
:10171000AC4205DCFA2080006043FFF7EFFF70BDAC
:101720000248FFF7D1FF024BE418F1E700093D0042
:1017300060F0FFFF034B0449DA6F08401043D8679D
:101740007047C04604800440FCBF1D00034A0449A2
:10175000D36F08408343D3677047C046048004407A
:10176000FCBF1D000F4910B50B68002B19DBC02210
:101770005B1092055B009B1800220C1D105B9852B9
:101780000232402AFAD1084B08483C3A1A50FE244B
:1017900006202401186018591042FCD001235B4236
:1017A0000B6010BD6405001000400340E80F00000E
:1017B000F7B50700160000910193002E00DCF7BD7D
:1017C0001C4C2368002B0DDA3F23F9171940C02366
:1017D0002000C919891189019B0502C04022C9183E
:1017E00000F03EFB23680025FB1A3F2B0FD8402258
:1017F0003500D21A964200DD1500201DC018019B4D
:10180000002B11D0009B2A00197800F031FB019BBE
:101810007F19002B02D1009B5B190093761B002ED1
:10182000CBDDFFF79FFFC8E72A00009900F018FB07
:10183000EDE7C04664050010C02010B54003FFF777
:1018400079FF042000F0ECF9082000F0FDF9642095
:10185000FFF754FF042000F0EDF9FFF72BFF084BD2
:101860000849C01800F078FB0138002800DC01208E
:101870000122054B52425861044B1A6010BDC0460C
:10188000D7B80500D8B80500004003406405001033
:1018900010B5FFF767FF042000F0C2F9082000F040
:1018A000DFF9C0204003FFF751FF10BD10B5FFF76F
:1018B00059FF10BD70B51D00C02314009B050E001C
:1018C0002A00C918200000F0CBFA0D4B1868002838
:1018D00014DB191DB04206DA301A09184433994254
:1018E0000CD2200001E0801B20186419844205D925
:1018F000221A402A00DD402200F0B2FA70BDC04634
:101900006405001010B5080011001A000023FFF74D
:101910004FFF10BD10B54020FFF70CFF10BD10B5F4
:101920004020FFF713FF10BD30B589B01022002111
:10193000040004A800F09CFAFF230393C53B029324
:1019400000F09AF90025030703D40C48FFF7A0FF25
:10195000013503A902A80A4B9847002D02D0074879
:10196000FFF76AFF049B2360059B6360069B01935E
:10197000A360079BE36009B030BDC0460040034050
:10198000F11FFF1F802010B5C002FFF7D3FE10BD6E
:101990000430C36F090109098B43C367704770B5F1
:1019A00006000D0014000B2907D9012A05D10B00F0
:1019B00011000C3B9940FFF7EBFF2402AD00240A15
:1019C000AC5170BD4068C0B27047C905C90D816196
:1019D00070478069C005C00D7047C069C005C00D63
:1019E0007047FFFF30B50825054AC36914682B40CE
:1019F000C905C90D234313604162416230BDC04631
:101A000028010010030070B5FE22002504000448E0
:101A1000FC335A6003498561FFF7E4FF256070BD20
:101A200000800540FF010000043101617047FFFFA5
:101A3000F8B50C4B04000F001600984202D1902319
:101A40001B011F43084D22002900084800F05CF9E3
:101A50000300BB43334329002200044800F045F94A
:101A6000F8BDC046008003402C01001020800340D8
:101A700010B51400902212010A430243054906489A
:101A8000FFF7D6FF0421054B1A698A4322431A61E6
:101A900010BDC046FF3FF1FF0080034000ED00E0B5
:101AA0000121414010B5490304220220FFF7E0FF65
:101AB00030BF002211001000FFF7DAFF10BDFFFF5A
:101AC00010B50B4C0B4A21000B4800F01DF9902378
:101AD00080221B0103401201FF20934206D1074AD6
:101AE0002100054800F010F9C006800F10BDC04667
:101AF0002C01001000800340208003401880034028
:101B0000802110B5C9010A000148FFF791FF10BDFF
:101B10000080034002008021501E824110B5D20394
:101B200009020248FFF784FF10BDC0460080034051
:101B300010B5044A0449054800F0E6F8A02318400F
:101B400010BDC046188003402C01001020800340C7
:101B500010B5044A0449054800F0D6F80723184098
:101B600010BDC046348003402C010010208003408B
:101B7000802010B5C000FFF7DDFD10BD072310B5B4
:101B800002000B400248034900F0AFF810BDC04608
:101B90002440054030010010020010B50B021B0A62
:101BA0000C320249024800F0A0F810BD30010010CC
:101BB00024400540020010B530320249024800F0CE
:101BC000A3F810BD3001001024400540020010B5FC
:101BD0000B0030320249034800F087F810BDC046C0
:101BE00030010010244005400200012310B50B40D5
:101BF00014320249024800F078F810BD300100109C
:101C0000244005400200012310B50B402032024958
:101C1000024800F06AF810BD300100102440054071
:101C20000F21034A08405368834353607047C046FE
:101C3000008004400F21034B08405A68104358604D
:101C40007047C046008004408E2210B53F240349EF
:101C500092008B58204083438B5010BD008004407D
:101C60008E2310B53F24034A9B00D15820400843DF
:101C7000D05010BD008004408E23034A9B00D058F2
:101C8000FA3BFF3B1840704700800440FD23024AA6
:101C90009B00D0587047C0460080044010B5080033
:101CA000FFF748FD10BD00224368426001328260A8
:101CB000013242608268002AFCD143607047FFFF16
:101CC000BFF34F8F024B034ADA60BFF34F8FFEE73B
:101CD00000ED00E00400FA05A4230122016811428E
:101CE00002D1013B002BF9D17047F8B50D00160069
:101CF0001F000400FFF7F0FF2B68200001332B606A
:101D00003760FFF7E9FFF8BDF8B506000C001500D5
:101D10000B6801330B603000FFF7DEFF30002768EF
:101D20002B68FFF7D9FF28682368BB42F3D1F8BDC1
:101D300010B52F48FFF726FEA020C005FFF7EAFDEB
:101D4000102200212A48FFF72AFE082201212848F4
:101D5000FFF725FE082202212548FFF720FE082272
:101D600003212348FFF71BFE082204212048FFF728
:101D700016FE082205211E48FFF711FE0822062143
:101D80001B48FFF70CFE082207211948FFF707FE42
:101D9000082217481100FFF702FE102209211448FB
:101DA000FFF7FDFD134B144A1B68934202D0134A00
:101DB000934215D108220A210D48FFF7F0FD0822B1
:101DC0000B210B48FFF7EBFD0D48FFF7D1FE0D4847
:101DD000FFF732FD0C48FFF715FE00F02DF810BD9F
:101DE0000A2203481100FFF7DAFD0A22E8E7C0469D
:101DF00000400440FC0200002143658765872143C1
:101E0000004005400040034000800540C30707D55F
:101E1000FF23A022C90119400233D205FF33D1505C
:101E2000704710B50100FFF7F1FF10BD10B500219C
:101E3000FFF7ECFF10BDFFFF10B500220721074898
:101E4000FFF7ADFDA02180228023C905120288582A
:101E500003438B500120FFF7E9FF10BD0040044011
:101E600010B500F0B6F810BD10B500F0C8F810BD00
:101E700010B500F0D2F810BD10B5FEF741FA10BD54
:101E800003000B4330B59B0707D00024A2420BD1BF
:101E900000200FE004300431043A032AF5D9036826
:101EA0000C68A342F6D0F0E7035D651C0C5DA3420D
:101EB00001D0181B30BD2C00E8E7FFFF03000B43E7
:101EC00030B59B0715D00023CA5CC2540133002AE9
:101ED000FAD130BD04C304310A68074C1419944385
:101EE0002C42F7D0D1B2197001330029F1D012126F
:101EF000F8E70300014DEFE7FFFEFEFE80808080E3
:101F0000032110B5421C084218D1114C0368114935
:101F100059189943214219D0DCB2411C002C0BD036
:101F2000FF242402811C234206D0FF2109040B4018
:101F3000591E8B41C318D91C881A04E0431C007831
:101F4000002801D1981A10BD1800DCE70430DDE745
:101F500080808080FFFEFEFE03000B4321D4002919
:101F600031D00122D207030901E009011209994287
:101F7000FBD9430801E0490052089942FBD900E02F
:101F80004908401A07D35241FAD301461046704718
:101F900049084018F7D29218FAD340180146104663
:101FA0007047CB0F00D04942021000D54042534049
:101FB00008B5FFF7D4FF0CBC521000D34042002AF2
:101FC00000D549421847F446002000F001F8604768
:101FD00070478446830708D18B0706D1131F04D3AB
:101FE00004C904C0043BFBD21A1D524205D0891A11
:101FF000801A8B5C83540132FBD160467047884263
:1020000007D98B18834204D9013A8B5C8354FBD1E6
:10201000704700B5FFF7DDFF00BD8446043A09D3E1
:10202000830707D109060B0A19430B0C1943043A1D
:1020300002C0FCD2043203D001700130013AFBD15E
:10204000604670478C4671460139095649008E44F6
:10205000614670477C200000010000000000000085
:10206000746164686572656E63652F64656D6F2E5B
:102070006E68732E6E78702E6C6F6700656E0073DD
:1020800074006E6400726400746800416468657274
:10209000656E6365206D6F6E69746F72696E67201F
:1020A000686173206E6F7420796574207374617237
:1020B0007465642E004164686572656E6365206DA9
:1020C0006F6E69746F72696E672073746172746584
:1020D0006420202020202020202020202020616734
:1020E0006F2E2020202070696C6C202072656D613D
:1020F000696E2020004164686572656E6365206DBD
:102100006F6E69746F72696E672073746172746543
:1021100064206174202020202020202020202020E6
:1021200065706F636820616E64206C6173746564B0
:102130002020202020202020202020202E20416C24
:102140006C2070696C6C73206172652074616B65C2
:102150006E2E006461797300686F757273006D692B
:102160006E75746573007365636F6E647300020649
:10217000080903040108090300030506080903040C
:10218000040809030003FFFF0103E80E46FD0100F8
:042190000300000048
:102194005A000000E105000055000000B1050000F0
:1021A400560000007505000057000000610600009D
:1021B40058000000450500005D0000000505000012
:1021C400000000000000000020232020206166742D
:1021D40065722020202020202020202020200A009A
:1021E400202378202820202020292061667465720D
:1021F400202020202020202020202020200A000130
:10220400020000000916000003000000D9150000B8
:10221400080000006D1500000900000051150000C1
:102224000A000000291500000C000000E114000061
:0400000300000129CF
:00000001FF
