:10000000F01F0010290100000D0300000D03000087
:100010000D0300000D0300000D0300000D030000A0
:100020000D0300000D0300000D0300000D03000090
:100030000D0300000D0300000D0300000D03000080
:100040000D0300000D0300000D0300000D03000070
:100050000D0300000D0300000D0300000D03000060
:100060000D0300000D0300000D0300000D03000050
:100070000D0300000D0300000D0300000D03000040
:100080000D0300000D0300000D0300000D03000030
:100090000D0300000D0300000D0300000D03000020
:1000A0000D0300000D0300000D0300000D03000010
:1000B0000D0300000D0300000D0300000D03000000
:1000C0002C030000000000100000000000000010E1
:1000D00000000000F0B5114B114CA34204D30024E2
:1000E000104883420FD3F0BD196858680A009E6813
:1000F000401A8718551AAE4201D80C33EDE715683F
:1001000004323D60F5E719685E680A00551AAE4290
:1001100001D80833E5E714600432F7E7C0000000B7
:10012000CC000000D400000010B5FFF7D3FF00F0B2
:10013000F9F8BFF34F8F034B034ADA60BFF34F8FD9
:10014000FEE7C04600ED00E00400FA05FFFFFFFFF8
:10015000FFFFFFFFFFFFFFFFFFFFFFFFFFFFFFFFAF
:10016000FFFFFFFFFFFFFFFFFFFFFFFFFFFFFFFF9F
:10017000FFFFFFFFFFFFFFFFFFFFFFFFFFFFFFFF8F
:10018000FFFFFFFFFFFFFFFFFFFFFFFFFFFFFFFF7F
:10019000FFFFFFFFFFFFFFFFFFFFFFFFFFFFFFFF6F
:1001A000FFFFFFFFFFFFFFFFFFFFFFFFFFFFFFFF5F
:1001B000FFFFFFFFFFFFFFFFFFFFFFFFFFFFFFFF4F
:1001C000FFFFFFFFFFFFFFFFFFFFFFFFFFFFFFFF3F
:1001D000FFFFFFFFFFFFFFFFFFFFFFFFFFFFFFFF2F
:1001E000FFFFFFFFFFFFFFFFFFFFFFFFFFFFFFFF1F
:1001F000FFFFFFFFFFFFFFFFFFFFFFFFFFFFFFFF0F
:10020000FFFFFFFFFFFFFFFFFFFFFFFFFFFFFFFFFE
:10021000FFFFFFFFFFFFFFFFFFFFFFFFFFFFFFFFEE
:10022000FFFFFFFFFFFFFFFFFFFFFFFFFFFFFFFFDE
:10023000FFFFFFFFFFFFFFFFFFFFFFFFFFFFFFFFCE
:10024000FFFFFFFFFFFFFFFFFFFFFFFFFFFFFFFFBE
:10025000FFFFFFFFFFFFFFFFFFFFFFFFFFFFFFFFAE
:10026000FFFFFFFFFFFFFFFFFFFFFFFFFFFFFFFF9E
:10027000FFFFFFFFFFFFFFFFFFFFFFFFFFFFFFFF8E
:10028000FFFFFFFFFFFFFFFFFFFFFFFFFFFFFFFF7E
:10029000FFFFFFFFFFFFFFFFFFFFFFFFFFFFFFFF6E
:1002A000FFFFFFFFFFFFFFFFFFFFFFFFFFFFFFFF5E
:1002B000FFFFFFFFFFFFFFFFFFFFFFFFFFFFFFFF4E
:1002C000FFFFFFFFFFFFFFFFFFFFFFFFFFFFFFFF3E
:1002D000FFFFFFFFFFFFFFFFFFFFFFFFFFFFFFFF2E
:1002E000FFFFFFFFFFFFFFFFFFFFFFFFFFFFFFFF1E
:1002F000FFFFFFFFFFFFFFFFFFFFFFFFFFFFFFFF0E
:100300000122014B1A60FEE700800540BFF34F8FCA
:10031000024B034ADA60BFF34F8FFEE700ED00E0C7
:0C0320000400FA0510B5FFF7EBFF10BD5C
:0400000300000129CF
:00000001FF
