:10000000F01F001041070000B5430000B543000099
:10001000B5430000B5430000B5430000B543000000
:10002000B5430000B5430000B5430000B5430000F0
:10003000B5430000B5430000B5430000B5430000E0
:10004000E5040000B5430000B5430000B5430000DF
:10005000B5430000B5430000B5430000B5430000C0
:10006000B5430000B5430000B5430000B5430000B0
:10007000B5430000C528000059130000B543000037
:1000800065140000B5430000B5430000B54300000F
:10009000B5430000C9150000B5430000B54300009A
:1000A000B5430000B5430000B5430000B543000070
:1000B000B5430000B5430000B5430000B543000060
:1000C000F8480000000000109000000090000010B0
:1000D00060000000F0B5114B114CA34204D3002482
:1000E000104883420FD3F0BD196858680A009E6813
:1000F000401A8718551AAE4201D80C33EDE715683F
:1001000004323D60F5E719685E680A00551AAE4290
:1001100001D80833E5E714600432F7E7C0000000B7
:10012000CC000000D400000010B5FFF7D3FF04F0AE
:1001300085F9BFF34F8F034B034ADA60BFF34F8F4C
:10014000FEE7C04600ED00E00400FA05FFFFFFFFF8
:10015000FFFFFFFFFFFFFFFFFFFFFFFFFFFFFFFFAF
:10016000FFFFFFFFFFFFFFFFFFFFFFFFFFFFFFFF9F
:10017000FFFFFFFFFFFFFFFFFFFFFFFFFFFFFFFF8F
:10018000FFFFFFFFFFFFFFFFFFFFFFFFFFFFFFFF7F
:10019000FFFFFFFFFFFFFFFFFFFFFFFFFFFFFFFF6F
:1001A000FFFFFFFFFFFFFFFFFFFFFFFFFFFFFFFF5F
:1001B000FFFFFFFFFFFFFFFFFFFFFFFFFFFFFFFF4F
:1001C000FFFFFFFFFFFFFFFFFFFFFFFFFFFFFFFF3F
:1001D000FFFFFFFFFFFFFFFFFFFFFFFFFFFFFFFF2F
:1001E000FFFFFFFFFFFFFFFFFFFFFFFFFFFFFFFF1F
:1001F000FFFFFFFFFFFFFFFFFFFFFFFFFFFFFFFF0F
:10020000FFFFFFFFFFFFFFFFFFFFFFFFFFFFFFFFFE
:10021000FFFFFFFFFFFFFFFFFFFFFFFFFFFFFFFFEE
:10022000FFFFFFFFFFFFFFFFFFFFFFFFFFFFFFFFDE
:10023000FFFFFFFFFFFFFFFFFFFFFFFFFFFFFFFFCE
:10024000FFFFFFFFFFFFFFFFFFFFFFFFFFFFFFFFBE
:10025000FFFFFFFFFFFFFFFFFFFFFFFFFFFFFFFFAE
:10026000FFFFFFFFFFFFFFFFFFFFFFFFFFFFFFFF9E
:10027000FFFFFFFFFFFFFFFFFFFFFFFFFFFFFFFF8E
:10028000FFFFFFFFFFFFFFFFFFFFFFFFFFFFFFFF7E
:10029000FFFFFFFFFFFFFFFFFFFFFFFFFFFFFFFF6E
:1002A000FFFFFFFFFFFFFFFFFFFFFFFFFFFFFFFF5E
:1002B000FFFFFFFFFFFFFFFFFFFFFFFFFFFFFFFF4E
:1002C000FFFFFFFFFFFFFFFFFFFFFFFFFFFFFFFF3E
:1002D000FFFFFFFFFFFFFFFFFFFFFFFFFFFFFFFF2E
:1002E000FFFFFFFFFFFFFFFFFFFFFFFFFFFFFFFF1E
:1002F000FFFFFFFFFFFFFFFFFFFFFFFFFFFFFFFF0E
:100300000823B0B5374C86B000AF21000722F8189B
:1003100004F088F810230025E11D0722F81804F0E6
:1003200081F8314BBD801A78304CAA4204D02800A5
:100330001D7002F0E9F825602368042B3BD81800F3
:1003400004F06AF9030320272E0000220133236002
:100350001100482310006C460930C008C000201A64
:1003600085466C4623700023951C6370994202D029
:10037000A01C04F057F82100280000F035FEBD460F
:1003800006B0B0BD032323600533F91807225333A9
:10039000E0E7042323600C33F91807224B33D9E735
:1003A000134D2B68002B02DC01F030FD28602B6818
:1003B000002B06DC23680022013323601100012397
:1003C000C8E7E72B07DDE83B2B602B680222BB80E8
:1003D000391D4623BEE700232B60236801332360C9
:1003E000F3E7C046384600000000001090000010FF
:1003F000980000107FB5060000F0EAF9050008201B
:10040000AB69034202D1012100F01EFA002102ABC8
:100410000A00009303200B00029102F03FFE2048E7
:1004200003F090FE029B6A89C41AAB891B04134334
:1004300003D0002C29DBA3422EDDAD8801F0E6FCC1
:1004400068430130A04202DA012D00DD013D2800A1
:1004500000F0A8FF00F0FCFD002E03D131000520C4
:1004600000F0FEFD00F004FE0121039003A801F05E
:1004700033FD012804D088200121400000F0E4F978
:10048000039B18B201F040F87FBD0121902000F0DD
:10049000DBF900F0B1FFDDE7842001218000F6E701
:1004A0000040054010B501240021022000F0D8FDD5
:1004B00002F010F800F068FF00F018FA00F07EFD7E
:1004C000064B1C70FFF71CFF00F086F9002804D0D3
:1004D000034B20001C6003F0AFFE10BD00000010B5
:1004E00000E100E010B5012003F0B0FE00F074F967
:1004F000002806D00420012100F0A6F9012000F018
:1005000051FF10BD10B5002803D0142000F0BAFF31
:1005100010BD0120FAE7FFFF012210B5024B1420A5
:100520001A7000F0AFFF10BD94000010012210B54A
:10053000024B14201A7000F0A5FF10BD95000010AA
:1005400030B51500094C0100A544094C6A4623004A
:10055000084803F0BFFB23002A002100684603F08F
:10056000A7F8C000044B9D4430BDC046FCFBFFFF14
:10057000FE030000004003400404000010B50724FF
:10058000CB1DD9172140C918C910054B03F0DEF85F
:10059000044BC01843425841034B4042184010BD21
:1005A000FE03000002FCFFFFED1F0000F0B589B064
:1005B000FFF778FF03F002FD04000120022C03D0B6
:1005C0002000FF384342584100F05CFF01230193B3
:1005D000FF2C07D0A31E5A425A410192012C7ED013
:1005E000032C74D003F0C0FE0024504B1D78EDB2F4
:1005F000002D0BD04E4F002238001A704430442298
:10060000390002F025F9041E78D12C00494B1D78E1
:10061000EDB2002D06D000222C001A7001F04EFF22
:10062000FFF76EFE00F000FF002802D00120FFF768
:10063000E1FE414803F045FC1023184201D003F0CD
:1006400093FE00F047FF0028CFD063425C41019B3E
:1006500064422340019300F0BFF8070000F0C8F89F
:10066000060000F0D3F83B003343DBB20500002B5B
:1006700001D100280ED0012003F0CAFC03F014FDC4
:100680000400002003F0C4FCA30603D50121802050
:1006900000F0DAF800F0C2F8040000F071F8274822
:1006A000012103F013FB01F0FBFE012000F0EAFE44
:1006B000002F2DD0012003F0B9FC200003F06EFCC8
:1006C000032403F023F9FFF7EDFE00207CE700F0A0
:1006D00083F8002886D00121042000F0B5F800201E
:1006E000FFF788FE7EE73378042B07D103A92800A3
:1006F00002F0DEF80100039800F076FC3D0004AE45
:1007000044353100280002F021F80028EBD17DE7C4
:10071000002ED2D1002DD0D1019B002B03D0FA2086
:10072000C00003F0DBF903F069FCFEE79400001061
:10073000F0000010950000100080054000400340CC
:1007400010B5084803F096F903F0E0F8A022D205AE
:100750005368002BFCD0192003F010FEFFF7BAFC01
:10076000FFF724FF80841E000020012202339A42FA
:100770004041C0B2934202D9019B009A1A6070476F
:1007800010B588B000F0B2FE01F0FAFA02F06CFB8E
:100790006A4604210C48202303F09CFA0B4C2022CB
:1007A0006946200003F04EFE002805D020232200D9
:1007B0000421054803F0B6FA200001222030002170
:1007C00003F042FC08B010BD004003404C01001093
:1007D000004870474C010010044B98691E231840D4
:1007E000023843425841C0B27047C0464C01001025
:1007F0000C22054B00209969114203D09B690130FE
:100800001B0998437047C0464C010010024B986981
:10081000C005C00F7047C0464C010010024B9869DC
:100820000006C00F7047C0464C010010054B5A8AA5
:1008300012B2824200DD58829A8A12B2824200DAF3
:10084000988270474C010010F7B50600154F05005F
:10085000BB699E430E231E4202D001227B1CDA7725
:10086000002900D035000024002D06D1BB693000DE
:100870003343BB6100F0A6FEF7BD01231D4209D042
:10088000631F012B0AD800230422019301A9200031
:1008900002F030FB0134E4B26D08E5E700221100FC
:1008A000F5E7C0464C01001010B5011E0C4C0FD1ED
:1008B0002022200003F0BEFD0A4B012063820A4B78
:1008C000A38202F083FA01210800FFF7BDFF10BDEB
:1008D0001222200003F0A6FD0023A361E361EBE7F1
:1008E0004C010010FF7F00000080FFFF73B5042360
:1008F00001AA0021244803F0EDF9244A019B116864
:10090000234D8B4220D000240126042300211E48C1
:1009100003F008FA2023002204211B4803F00AFAFE
:1009200001F018F9002001F083FA0020FFF7BCFF66
:100930006B1CDC7728001C3000F0D2FD3000012158
:10094000FFF782FF200076BD20232A0004210E48F5
:1009500003F0C0F901F0FEF8002002F037FA280099
:100960000122203000216C1C03F086FBFFF740FFC2
:10097000002806D0E47F0126002CDBD1040090364D
:10098000D8E701263400D5E70040034004000010FA
:100990004C010010F7B5099C0090019115009A1CBC
:1009A00000D17FE05A1C00D18BE0019AA078D1439E
:1009B000C9170D40E1780902084321790904014370
:1009C0006079000602000A4311000098C14001202E
:1009D000014271D04549A0790E6801360E60217838
:1009E0008C4667466178090239438E4264DD0127EF
:1009F0000740BC467900860700D504314607F60F4C
:100A00008919000702D5002D00D04919DC27384E7E
:100A1000FF3730884118B9425EDC6246217AE779B7
:100A200009023943013189B2E171090A2172002AB0
:100A300007D0304909680B5409181B0A02304B7063
:100A40003080A3799B070FD529482A4B01881B6862
:100A5000089A5A54089A5B18170A5F700431170CE9
:100A6000120E9F70DA700180A3795B0708D5684683
:100A70001F4A2049138809680078C854013313803D
:100A8000A3791B0718D5002D16D01A4A338812688F
:100A90000199D21818482B0003F01CF933885D190E
:100AA000358009E0134B114A1C60002313600922B2
:100AB000E37123720E4B1A80A079C043C0B2C00903
:100AC000FEBD00220B4B1A60084B1A60084B1978C8
:100AD000217059786170EEE780231343190AA370DF
:100AE000E170190C1B0E21716371E5E7A000001085
:100AF000A8000010A40000100040034013B50B4BE9
:100B000004000193FFF768FE00280DD001210420A6
:100B1000FFF79AFE012000F045FC002301AA042102
:100B20002000019301F094FF019816BD0F00010011
:100B3000F0B591B00390FFF74BFE2827050006ACF7
:100B40003A000021200003F075FC2B6802A96360C5
:100B5000AB88002623812B89EA881B0413431A22C1
:100B6000521813801B0C5380AB896A891B041343F2
:100B70001E22521813801B0C5380EB8963822B8A30
:100B8000A3826B8AE382AB8A2383AB69E36101F0C2
:100B90003DF905AB60833200310000930320330040
:100BA000059602F07BFA059B0648236203F0CAFA19
:100BB000220060623900039801F04AFF300011B052
:100BC000F0BDC04600400540F8B5060014000729F6
:100BD00032D163781278194D1B021343E2782B80CF
:100BE000A37812021A4323791B041A4363791B0664
:100BF000134300D1124B6B801B0CAB80A3791148BF
:100C0000AB7102F06BF901210700607823780002D4
:100C100018432A00494202F0D9F9380002F05EF97F
:100C2000637822781B021343298830002B802A0026
:100C300001F00EFF0020F8BD0348FCE7B8030010E8
:100C4000FFFF7F00950900000D00010013B50400AF
:100C500001290DD11078831E052B0BD800F000FA66
:100C600001AA01900421200001F0F2FE002016BD2F
:100C70000148FCE70148FAE70D0001000E00010001
:100C800037B50500140012294ED1537811781B0294
:100C90000B43917809040B43D1780906194300D11D
:100CA0000131224803F05AFA00F0A6FB002301AA02
:100CB00004212800019301F0CBFE012001F0B8F8D7
:100CC00000F016FC2000FFF7EFFD637922791B028C
:100CD000134314D001210220FFF7B6FDE279A37976
:100CE00012021A43237A1B041A43637A1B06134326
:100CF000013306D101200E4B186003F09DFA00204D
:100D00003EBD04200121FFF79FFDE379A0791B027E
:100D10000343207A00040343607A0006184300D19D
:100D2000013000F03FFBEAE70248E9E700400540F8
:100D300000E100E00D000100F0B50B7889B00390F0
:100D400001915F4C022B05D102005E4803F06AFB63
:100D5000012303E00A2B00D1ACE02378029323782F
:100D6000002B00D1A3E000232370564C80222600E4
:100D70001C3692005449300001F0E6FB019B05ADA2
:100D80001B78482B79D1473B2B71504B2900300001
:100D9000059301F0FEFB002809D01022210030004D
:100DA00001F001FC002802D0300001F01BFC0123FF
:100DB0002B71474B04A8059300F0EEF9049B070044
:100DC000002B11DD26001C362900300001F0D8FB75
:100DD000002809D0049A3900300001F0E4FB002813
:100DE00002D0300001F0FEFB04A800F021FA049BC1
:100DF0000700002B11DD26001C362900300001F011
:100E0000BFFB002809D0049A3900300001F0CBFB69
:100E1000002802D0300001F0E5FB04A800F062FADF
:100E2000049B0700002B11DD26001C362900300032
:100E300001F0A6FB002809D0049A3900300001F027
:100E4000B2FB002802D0300001F0CCFB01232600C9
:100E50002B711C361F4B29003000059301F099FBC4
:100E600000280AD021000A221031300001F09BFB3B
:100E7000002802D0300001F0B5FB002326002B71C2
:100E80001C36144B29003000059301F082FB00282A
:100E900009D0039A0199300001F085FB002802D0A7
:100EA000300001F09FFB20001C3001F0AFFB0298E6
:100EB00009B0F0BD0348039A0199103046E7C046D7
:100EC0009C00001070010010A401001043000010ED
:100ED0004000001046460000F8B506001700022941
:100EE00021D100247B781278104D1B021343AB8074
:100EF0002C60032221000E4803F09CFA78783B789E
:100F00000002184301F024F9A04204D0E821094866
:100F100001F070F9440021006310AB710A312A001E
:100F2000300001F095FD0448F8BDC046B80300103C
:100F3000BF030010C20300100D00010070B50600D1
:100F400004291ED11378012B1DD15478002C1CD1FB
:100F50000F4D2C60AB80D078937800021843E88066
:100F600001F0F6F8002804D0E8210A4801F042F91F
:100F700044002100300008312A0001F069FD002002
:100F800070BD0548FCE70548FAE70548F8E7C046A4
:100F9000B8030010C00300100D0001000E00010096
:100FA0001000010010B501240B2804D1FFF720FC2C
:100FB0006040C0B210BD2000FCE7FFFF37B502253E
:100FC00001F02EFD01AC074801F03CFD2800210096
:100FD000258001F069FE0A2328002100237001F01A
:100FE00063FE37BD390D0000012210B5024B1A70A7
:100FF00001F05AFE10BDC0469C00001007B50F4816
:101000001100824200DD01000D48814200DA01003A
:101010000C480160002B0FD00132531E9A410A4B3D
:1010200052421A40094B5020D2186B4600929980C8
:101030006A46062101F00CFD07BDC04652030000C0
:1010400070FEFFFF58000010F2FFFEFF0E000100CF
:10105000014B024A1A607047580000105303000009
:1010600010B50B000022022100F0EAFA10BDFFFFCC
:1010700010B5802464000021034803F041F92042A8
:10108000F9D1024B186810BD00000640580000104E
:10109000F8B50600881A0D0001302021140003F075
:1010A000C9F930230A272B702D1B002E0DDD3000CF
:1010B000390003F033FA303129553000390003F09C
:1010C0002DFA013C0600002CEFD1F8BDF8B5050063
:1010D0000C000127002801DA002745420A212800D8
:1010E00003F01CFA012208002100FFF7D1FF2E2295
:1010F000631E1A700A21A61E280003F00FFA0322AD
:101100003100FFF7C5FF002F02D12D23043C2370CF
:10111000F8BDFFFFF7B5040001911700B3282ADDE1
:10112000164B984215DC3C2103F0F8F90726040021
:10113000134D38000722202103F07CF932002900EA
:10114000380003F06FF9032201992000FFF7A0FF98
:10115000F7BD0C4B984207DCE121090103F0DEF9F1
:1011600005260400084DE4E7084903F0D7F90426F2
:101170000400074DDDE70726064DDAE72F2A0000B9
:101180000A4700007FF4030004470000805101007B
:10119000A246000012470000F0B585B00700FFF737
:1011A00017FB0424012381690A00E2401A4202D19C
:1011B000013C002CF8D100F029FE1A4D2E2200210E
:1011C0000600280003F036F9174BA200D15828007A
:1011D00003F056F9032C06D0042C1FD02E23280030
:1011E0003B6005B0F0BD002103AB0A000093200076
:1011F0000B00039101F052FF0C4802F0A3FF2A00FC
:101200002900039B0E311032C01AFFF783FF29001B
:101210001D3105223000FFF73BFFDFE729000D31CC
:10122000F7E7C04693050010A846000000400540BF
:10123000F0B587B000250600FFF7CAFA04AB2A0014
:101240002900009307002B000320049501F026FFDE
:10125000A122224C29005200200003F0EBF8356057
:101260000535EBB203930123AB40BA691A4224D08F
:101270003368002B02DD0A22631E1A70049BE8B259
:10128000059305AB009300231A00190001F006FF37
:10129000134BAA00D158200003F0F2F8052D12D10B
:1012A000049A059B2100981A220024312632FFF768
:1012B00031FF33682E342E33336001350C2DD0D1FD
:1012C000064807B0F0BDEBB2062BF2D1049A059B9D
:1012D0002100981A220023312532E8E7FC0500108E
:1012E000A8460000F8B50600FFF772FA174C050093
:1012F00027002E373B220021380003F09BF81223F1
:10130000EA5E14216B5E9A421BDA1149380003F041
:10131000B7F821001223E85E5731FFF7D7FE21000E
:101320001423E85E6731FFF7D1FEFFF7A1FE21002D
:1013300025004731FFF7CAFE3B232E3528003360D6
:10134000F8BD0449380003F09BF8EEE79305001060
:101350004A4600008646000070B5094802F01AFFB0
:10136000012405000100064802F022FF254205D0B5
:101370002100034802F0D8FE024B1C7070BDC0462D
:1013800000400540AB00001010B50121034802F0F9
:10139000F3FE8022024BD2011A6010BD00400540CE
:1013A00000E100E010B500210400104802F0AEFE9C
:1013B00000220F4B03210D481A7002F0A7FE211ED8
:1013C00000DC0121094802F0AFFE8020400102F05C
:1013D00033FF8020400102F039FF8022054BD2010B
:1013E0001A600121014802F0C7FE10BD004005400F
:1013F000AB00001000E100E010B5084C0021200017
:1014000002F084FE8022064BD201DA670021200020
:1014100002F0B2FE0022034B1A7010BD00400540DE
:1014200004E100E0AB000010014B1878C0B2704737
:10143000AB00001001228021074810B54368490223
:1014400093434360054BD967026002F018FF002206
:10145000034B1A7010BDC04600C0004004E100E01C
:10146000AA00001010B50124044B1A68224204D0CF
:101470001C60FFF7DFFF024B1C7010BD00C0004076
:10148000AA000010802110B5490004000E4802F0A7
:10149000F1FEFFF7CFFF02F0F7FA002C11DD6043F9
:1014A000400B094B094ADA60012298618020596992
:1014B0004002114359610649086059680A435A605D
:1014C00010BDC00C0130ECE700C00040FF1F000061
:1014D00000E100E0014B1878C0B27047AA0000108C
:1014E000014B18607047C046AC0000107047FFFF0A
:1014F000044B1B68002B03D0FC211A780A401A7099
:101500007047C046AC00001070B52A4B86B006008C
:10151000984217D0FFF78AF9FFF75AF90E23C25EF7
:101520001021435E9A420DDA234C01252168097887
:10153000B24209DD29404020FFF786F92368197877
:101540002943197006B070BDB3420ADA4908294030
:101550002020FFF779F90223226811780B431370DA
:10156000F0E7294207D105208B0705D4FC2122682A
:1015700013780B40F3E7062001230F255B42049309
:1015800000236D442B702A00009304A901F091FD03
:10159000049B002BEADB2B78002BE7D0074802F0F6
:1015A000D1FD2B78059005AA0499054802F0BAFBF5
:1015B000DCE7C04653030000AC00001000400540CB
:1015C000004003407047FFFF70B5154802F0B1FEC0
:1015D0000300144814495843144B154DC01802F029
:1015E0009DFF2C780600E4B2022C03D10A2102F000
:1015F000A3FE060080220F4B9203DA67084802F030
:1016000063FE074802F073FE29780B4B3200C9B223
:101610001B68FFF7F3FC0022084B1A7070BDC04630
:10162000000006403E0800004D0800005000040085
:10163000B400001004E100E0B0000010B50000109C
:10164000F7B5264C0193237800900D001700012672
:10165000002B41D12248267002F01EFE009920483E
:1016600002F03DFE002F0CD11E4B019A1D701E4B47
:1016700031001B481A6002F073FE80221B4B92035C
:101680001A600026164802F036FEB74222D08026A5
:10169000B6000021124802F033FE3042F9D0104863
:1016A00002F047FE0300124812495843124BC0187B
:1016B00002F034FF0600022D03D10A2102F03CFEA5
:1016C000060080220D4B9203DA67054802F0FCFD0C
:1016D000002323703000FEBD7642FBE7B50000100A
:1016E00000000640B4000010B000001000E100E06F
:1016F0003E0800004D0800005000040004E100E036
:101700000022054B1A605A601A72013A1A61DA60B7
:101710005A619A617047C04640070010F7B501242E
:1017200008279440BD1A00952E00013F5D1EBD4361
:101730001035013CAD1AE4B201950D78077895405B
:1017400027403D430570B34204DD0D78009F013012
:101750003D410570019D08360131B542EDD1D218E9
:1017600007231A40F8339340DB43DBB2002B02D04F
:10177000027813400370F7BDF7B50C001100082282
:101780000125521A9540013DEDB2AC4616002500E8
:101790002C780C41E4B204709E4217DA6F789740BF
:1017A000019767463C40019F3C4304708C19A3425B
:1017B00008DC07221A40FF239340DB43DBB2002BF7
:1017C00008D1F7BD013001350836E1E78C19A34295
:1017D000F9DCEEE7027813400370F2E770B5104EC3
:1017E0000100F56900202B685C03240F032C16D838
:1017F0000B23072230005C43133422402030E410D6
:101800000019FFF78BFF0F212A68012053031B0FDC
:1018100001330B408B4003490A4013432B6070BDDA
:1018200040070010FF7FF8FFF8B5144B0400DD6996
:1018300008002A685203120FA24215DD0B216143F2
:101840000F4A13310E000A4004D50821013A4942DB
:101850000A4301320727F117394089192033C9108B
:1018600059180B23FFF788FF2B6801205B031B0F20
:10187000A34200DC0020C0B2F8BDC0464007001003
:101880000700008000221000074B10B5996A5C68C1
:101890008901944200DC10BD044BC0188B5A2F33D1
:1018A0005B119B00D218F4E740070010E70200002C
:1018B000020010B50E4B146800209C4217D10D4B4E
:1018C00094689C4213D153680B4A13420FD1834250
:1018D00006D00A4A0A4C926A9201D218A24206D84D
:1018E00001204A1C03D05B1A58425841C0B210BDB7
:1018F000FFFF0000FFFFFF7F0380FFFF4007001096
:10190000FF77000030B593B06A46184D184C2B682D
:10191000200013806B6817495380042302F002FAF9
:101920006B461B8801AADB4313806B465B88200053
:10193000DB4311495380042302F0F4F92B6802AA17
:10194000D917C905C90DC918A8234912DB00890197
:10195000C9182000402302F0BDF9E021402302AA6B
:101960000901200002F0DEF913B030BD400700107D
:1019700000400340780E00007C0E0000F8B50724FC
:101980000E0069460440A3180733DB101500DA1D6A
:10199000D208D2008A1A00AF9546A822C008D20009
:1019A00081186A46054802F095F92B006946300017
:1019B0002200FFF7E1FEBD46F8BDC04600400340EF
:1019C000F7B5184D00AF39601600054004D508235F
:1019D000013D5B421D4301350723C4171C40A8236A
:1019E0006A462418DB00E410E418AB190733DB1057
:1019F0007B600733DB08DB00D31A9D4621006A4673
:101A00000123094802F066F933002A003968684664
:101A1000FFF784FE7B686A462100034802F082F9E2
:101A2000BD46F7BD07000080004003401FB5074BCF
:101A300001A90193064B5A6818680292054A03925D
:101A40006022FFF7BDFF05B000BDC046FFFF0000EC
:101A500040070010FFFFFF7FF8B50600144DAB6A8A
:101A6000980180194478037824021C43114B9C424E
:101A700001D10020F8BDAB69B34204D120002F3062
:101A800040118000F6E70C4F02300C4BBC4207D1EE
:101A900001000B4A180002F0C5FC8020C000E9E7F5
:101AA0001A002100FEF76AFDB842E2D1AE61E5E717
:101AB00040070010FFFF0000ED1F00006C07001042
:101AC000FE03000037B5058804000B21280002F052
:101AD00028FD002089B2814233D11A4B9D4230D873
:101AE00004236A461849194802F0F4F86B461A882C
:101AF0006946D24392B21A805B88DB439BB24B802B
:101B00002188914203D1628801209A4219D0A821EC
:101B100004230E4801AAC90002F0DCF80020019B52
:101B200083420ED16B460A4A1B88934209D16A460A
:101B300052889A4205D12388834202D16088434269
:101B400058413EBD9C4500007C0E00000040034013
:101B5000FFFF0000F0B53F217D4C002625007D4BA6
:101B60007D4A97B0D21A7D4B20359A183F32D31751
:101B70000B409B189B11A362FFF7C2FD02220321B9
:101B8000280002F079FA236AE5615B03B3420ED0C4
:101B90001B0F042B0BD8258C0B216D046D0C28001A
:101BA00002F0BCFCB14202D16D4BAB427641042342
:101BB00002AA6C496C4802F08DF802A8FFF782FF78
:101BC0000500002E32D1002D14D0E26902AB188836
:101BD00013884004DB0B400CDB030343138003A991
:101BE0006022FFF7CBFE02AB598803A8FFF760FE27
:101BF00000282CD15D4F022306AA39005A4802F072
:101C000069F802AB1A8A5A4B00269A4254D139001D
:101C1000022306AA0839544802F05CF802AB1A8A7B
:101C2000531C1340B34247D1190028E0E3696022F6
:101C3000188803A94004400CFFF7A0FE002D17D020
:101C400002AB598803A8FFF733FE0028BBD0E36935
:101C50001B885B045B0C2360049B6360002D01D137
:101C6000FFF750FE0121404802F030F817B0F0BDF8
:101C700001214942E6E7531E1A4001230131002A9F
:101C8000F9D1002B01D006AB1A803A4B0026FB1885
:101C9000DB005B1818000B21019302F042FCB142FB
:101CA0000AD1602203A90198FFF768FE012103A869
:101CB0004942FFF7FDFD0600023F002E09D12E4BE1
:101CC0009F4200D097E70C22310003A802F0B2FB3C
:101CD0000196E369019A1E885204F60B520CF60332
:101CE00016431E807604760CB1D1002D29D0E02158
:101CF00002AB1F8806AA402309011B48276001F098
:101D0000E9FFA8237F12BF01DB00F91806AA4023D0
:101D1000154802F007F840372368FF009F420DDBAB
:101D2000002E00D0236002AB5B88E269636011681B
:101D3000124B0B401360FFF779FE8FE70B3B2E0031
:101D4000ECE72560656019680C4A0A401A60F2E702
:101D50004007001000000010F8480000900000103C
:101D60009C450000780E000000400340F30D000089
:101D7000FFFF0000B6FAFF1F47050000FF7FF8FFD6
:101D80001FB51E4C6022E36901A918884004400C6D
:101D9000FFF7F4FD012101A84942FFF789FD184B27
:101DA0001B78002B01D1002801D1FFF73FFE154819
:101DB00004236A46144901F08DFF6846FFF782FE4E
:101DC000002805D06B4622681B88D31A2B2B01D91B
:101DD000FFF798FD01210B4801F078FF2000E16931
:101DE000236820305A040B88520CDB0BDB031343AF
:101DF0000B800222032102F027F91FBD40070010CB
:101E0000B600001000400340780E0000074B10B5EC
:101E1000DA6918680B21146802F080FB6403240F50
:101E20002418FFF72FFD201810BDC04640070010F2
:101E300030B5244C244BE26985B0116805000B4095
:101E4000136000210C2201A802F0F4FA602201A91B
:101E50002068FFF7B5FD042300221C491C4801F04F
:101E600069FF002D28D0E023A06AFF33984223DCCD
:101E7000184A830193421FD81968013120D0000904
:101E80001D2101F095FF021E16D1A36A0F20190033
:101E90000F310D0981438B4205D272B60139A06A18
:101EA00001F0AAFF62B61D2D06D872B600221D21D0
:101EB000280001F08FFF62B6FFF722FC05B030BDAD
:101EC0000433D7E740070010FF7FF8FF780E0000CB
:101ED00000400340FC7700000023F0B58DB0059171
:101EE00000900193019B059A934202DB01980DB08B
:101EF000F0BD0098FFF772FC061E07D0019B01336E
:101F00000193009B02330093ECE7029E06AB750041
:101F1000E9183000FFF788FC731C02930028F4D105
:101F20000400009B06AA1B88AB527B4D0B2128683E
:101F300002F0F4FA794B984200D0A2E0AB6A039326
:101F4000E023039AFF339A4200DD9AE0E13BFF3B36
:101F50006E68AB61724D354003D5ED183F3B1D43B4
:101F60000135704F2A00FF21380002F063FAA820E3
:101F7000ED19AF1C3A006C49C000FEF7E1FA6B4B5B
:101F8000421E9A4207D9A82169486A4B3A00C90003
:101F900001F0A0FE644803126B70C31DDB10023316
:101FA0002870FF21ED183F235E4FEA1B1A4200D034
:101FB00098E0594A2F3051684011926A80004118C8
:101FC0009201521804915C49013A8A4259D8F21799
:101FD0001A409619039AB611B618DA1B5219D5177A
:101FE0001D400F23AD18AD117219013AD117F0172A
:101FF00019401840891880190911001101F0D8FE04
:10200000031E3ED1B601AD0172B62A003100380080
:1020100001F004FF62B6002833D1424B3A68991BA5
:102020000B007018013201D1002D5ED172B6002371
:102030002A00310001F006FF62B6002821D1364D9A
:102040002B7A2E682860022B0CD13C4BEA689A420E
:102050004FDC03232B72FFF715FC394BC0186B685C
:102060002861EB602C4B049A5A60FFF74BFC0C2262
:10207000002109A802F0DEF9602209A93000FFF76B
:102080009FFC254D2F4B286898420DDC06AB610064
:10209000C9180B22FFF794FC2B6801340B332B601B
:1020A000029B9C4200DA40E7274AE31711781B1B8A
:1020B000DB0F0B431370002C00D117E72600164DE1
:1020C000224BEA6911680B401360029B9E4212DBAF
:1020D0002B7A012B00D011E7E868A04212DB041B29
:1020E000EC600BE7297001355FE70436043DF258D8
:1020F00097E7E860B6E7700006ABC018FFF76EFB25
:102100000136E2E7241A0B200223404244432B729B
:102110002B68E418E4E7C04640070010E70200001F
:102120003F0000806C070010ED1F0000EB1F000057
:1021300000400340FE030000FF770000EC1F00009A
:1021400019FDFFFF9B450000B6000010FF7FF8FF60
:102150000121F8B50023254C494205002372216175
:10216000E16018009D4213DBA26A1E0092019446B2
:102170000A0067689F420CDCAA421DDCAE421BDDF0
:10218000032322612372E16020696561C043C00FAF
:10219000F8BD174A1900B0186246D25A2F325211B0
:1021A0009200D218B54201DB854203DB13003200F6
:1021B0000600DFE73200E3E70B21AB1B4B4320684F
:1021C000984204DD022225612272E360DCE702F01E
:1021D000A5F9E36986191B68AE1B5B031B0FB342AD
:1021E000D2DD012325612372E660CDE740070010B0
:1021F000E7020000F0B500254F4B85B01A6900904A
:102200000F00AA4270DB1A7A032A4DD1D868FFF773
:1022100023FC494B041EDA68029202995A6841D0A5
:10222000BD423FDA914223DB02221A720022DA60B9
:102230003AE00B22019BF31A5343404A1A4004D55B
:102240000821013A49420A4301320720D9170140C7
:10225000C9183B4BC910C918009B680018180B23FC
:10226000FFF78AFA344B013601355E61AF420AD07E
:10227000314B1A695E6901920199324A8C46624477
:102280000392B242D5DA2C4A039B51698B4207DA9A
:102290002D49029B8C461C19019BD4606344136139
:1022A000D068B4E79142BFDA234C237A022B09D1DC
:1022B000E0682368BD421ADB984203DB01232372E6
:1022C0000023E360237A012B0AD1BD4208DAE668D5
:1022D000009B690059183000FFF7A6FA002819D1B1
:1022E0000021009B8D421FDC280005B0F0BD984204
:1022F000E4DA009B690059180B22FFF73FFB2369C2
:10230000013501332361E3680B33E3606369013313
:102310006361CDE7236901360133236163690135C8
:102320000133E6606361D0E700201A5E0131520597
:1023300052151A800233D5E74007001007000080CD
:102340006C070010E6020000E7020000FC2230B536
:102350000F4D5200AB1A511E09D31C78032C04D127
:10236000002905D10021080030BD0A00F2E7002253
:1023700059780160FF2901D0991CF4E7032AF1DDA7
:102380009A78191D12020260DB781A430260EAE7AC
:10239000008305400023084A10B5084C1370084A12
:1023A00020000221136001F0BDFDA12120004900A1
:1023B00001F08AFD10BDC046B70000100080054046
:1023C000BC000010F0B585B00392002202930AAB66
:1023D00020CB0E791B7804000F000192934203D0AA
:1023E000086802F06FF80190019B03225B19012538
:1023F000754055436268EB189B18802200209200BC
:1024000093422CDCA2689A4229DB227D02996675F0
:102410003601D2010E4316436A4663602368E060CA
:1024200023611E70029E1279D91C012E19D16846B3
:10243000007A5870501C9870039B4D19032B12D1D1
:1024400051332B70153B1A406A7002352800019AEF
:10245000396801F0E7FF0120019BED18256005B008
:10246000F0BD5A70E7E7039B062BEFD14F332B707B
:10247000BB686B70E9E7FFFF10B5074C200001F067
:1024800027FD8823984381B2200001F01DFD012221
:10249000024B52421A6010BD00800540C00000107F
:1024A00010B50021034801F00FFD8022024B92017C
:1024B000DA6710BD0080054004E100E010B50C2291
:1024C0000249034801F0AEFF10BDC046D0480000ED
:1024D000008105400122084B10B552421A60FFF7F7
:1024E00059FFFFF7EBFF0549054801F0F9FC802291
:1024F000044B92011A6010BDC0000010FF010000E3
:102500000080054000E100E001220C4B10B51A707C
:102510000B4B1860002810D002210A4801F002FD80
:10252000084801F0D9FC84210140064801F0D8FC9C
:10253000C5210448490001F0C7FC10BDB7000010D8
:10254000BC0000100080054070B50D001E00002387
:1025500082600361C360867504000C22074928006D
:1025600001F060FF0C23002E00D0023BED185A1C36
:10257000012325606260237570BDC046D04800000D
:1025800007B50123052201930092023AFFF71AFFD3
:102590000EBD012307B50193023300930422013BD2
:1025A000FFF710FF0EBD436870B5D31815008022E9
:1025B000040092000020934213DCA2689A4210DBD0
:1025C000E268667DAA18864201D0FF2A09DC6360B2
:1025D000E26020682A0001F025FF012023685D19D0
:1025E000256070BD10B50369C1689A785218417DA5
:1025F000D4B2002903D09C700023037510BD1212C1
:102600009970D9701A715C71F6E7FFFF0923F7B56D
:102610004468827D05001B1B2600002A51D00B3E1A
:10262000032E51DC2B685A1C2A60FE221A700022ED
:102630002B6801921F1B3D4B1B78934206D0032150
:10264000A21ED3170B409B189B10019303231C421F
:1026500001D09C430434354B2F601B786C60002BF9
:1026600015D1334B1A68013211D01A68A2420ED22A
:1026700003221B682F489343FA582F4B1A6001F02E
:1026800027FC8821014389B22A4801F01DFC220061
:1026900039002A4801F0C6FE244B1B78002B02D0DB
:1026A0000198FFF731FF3302254AFE2E37DD310650
:1026B000244E0E43FF2109040B4001201E431660E7
:1026C000FEBD0D3E032E2EDD40222969087802430F
:1026D0000A702A68D318AA7D002A12D0FE2EA1DD26
:1026E000802100220234890010008C42E8DCAA75A7
:1026F000991C181D320001F099FE2B6802332B60E3
:1027000090E7FE2E00DD8DE70122191DAA75981CA9
:10271000320001F08BFE2B68023C023BEFE70A4ED1
:1027200011680E40C9E70268D318EDE7B700001042
:10273000C000001000800540C4000010008105406A
:102740000881054003FF0000FF00FFFF0023F7B5ED
:1027500046684B608B600400C3609E4201D100203C
:102760004AE003680825036110201A7815401040DC
:1027700094469206D20F0A730200571EBA41970080
:10278000D21B2F0000957D426F410732D21B96422B
:10279000E5DBB21A01925E789A78002818D00333EC
:1027A00000270098B84201D01F7801339019019D8D
:1027B000C0198542D3DB281A6060654607200540B2
:1027C0002800042DCBD801F01FFF0F1837CA410095
:1027D000D87800020243187900040243587906337E
:1027E0000006024312BADBE732433A43B7D10A701C
:1027F00001209B182360E260FEBD012EAFD1009D39
:10280000581C1B78002D00D0C019013A542B0DD153
:10281000513B0B7003785DB2002DA0DB3F250130EA
:102820002B408B60D21A4860C318E1E7552B96D134
:102830004F3B0B70431CDBE704204B6008708E603D
:1028400000999B190029D3D0DB19D1E70520F4E7C3
:10285000F0B587B0040001A80D001600FFF776FD63
:10286000011E21D0019A114B871800209F421BD8CE
:10287000B24219DCA660256062600130002A11D0E6
:10288000280001F0CFFD666825686368002B01DC35
:10289000012005E002A92000FFF758FF0028F4D12D
:1028A000666025600023E36007B0F0BDFF8205404D
:1028B000C3680B60002B03D00368C068181A704708
:1028C0001800FCE7F0B5424D85B0280001F004FB8C
:1028D0000600280001F0F5FA3100019028002C6A6A
:1028E00001F0FEFA3B4BA4B21B78002B05D0082365
:1028F0002340009335D0FFF74DFD364B1D78EDB2E8
:10290000002D1AD1630640D4E405E40D23070AD54F
:10291000314B1A68013206D0304A1B681168032215
:1029200093432F4A9950C1235B001C4201D0FFF70B
:10293000A3FD002D01D0FDF7EFFD80235B003340A8
:10294000B2073ED527490A78002B02D0019BDB064F
:1029500031D5002A03D101200870FDF7D3FD05B061
:10296000F0BD2306C9D5204F3968062905D92800AE
:1029700001F0D8FA009B3B60BFE7852128004900A1
:1029800001F0A2FAFDF7D2FDB7E7FFF775FDF823D6
:10299000FF331C40154B1B88032BB7D003A8FFF750
:1029A000D5FC0028B2D0039B114A01259B18C01802
:1029B000094B1860AAE7002AD1D00020094B1870F3
:1029C000CBE7002BCBD0074B1B78002BC7D0F4E70D
:1029D00000800540B7000010C0000010C4000010C7
:1029E00000810540B8000010BC00001008810540BF
:1029F000007FFABF70B50024049DAC4201DB07489C
:102A000008E0E5005D192E78864204D16D68002D3E
:102A100001D0A84770BD0134E4B2EDE70700010022
:102A2000044B054A1360054A1360054A13600022EF
:102A30001A707047A4030010D4000010D0000010DA
:102A4000CC000010014B18607047C046C800001051
:102A5000F0B50D002B0085B011006A460400093363
:102A6000DB08DB00D31A00AF981C9D462A00BB6030
:102A700001F0D8FCBB68BA681C70012353702D4B61
:102A8000AE1C1B68002B04D1142E08DDBD4605B01A
:102A9000F0BD6946300098470028F5D0F6E7721C73
:102AA0009446254A254C116823680A0014327A603E
:102AB000624678689A18904202D2FF2221601A700A
:102AC00022681F4BFA601B68F8681422834200D901
:102AD000002200203860F8688444981884451BD28E
:102AE0003A68002A01D0164A1360FB6832001E7053
:102AF000581CB96801F096FC236803355D190E4B2C
:102B000025601B681A001432954200D3236000220E
:102B10000A4B1B681A70B9E71878FF2804D00130F7
:102B20001B187868984201D80B00142201203860E5
:102B3000D3E7C046C8000010D4000010CC0000103D
:102B4000D00000107FB5002303930D4B06000293C5
:102B5000082501F067FB2840041E0DD1012109481A
:102B600001F0B4F8084B02941B6802AA2900300057
:102B700001930393FFF76CFF029804B070BDC04649
:102B80000F00010000400340D40F00307FB5002447
:102B9000082601AA042105000194FFF759FF32001D
:102BA000210002A801F046FC00F046FE02AA0390B4
:102BB00031002800FFF74CFF200004B070BDFFFF7C
:102BC00013B5040008236A460549064801F082F857
:102BD00020006A460821FFF73BFF002016BDC046D3
:102BE0009C0F0000004003401FB50400684601F040
:102BF000B1F820006A461021FFF72AFF002004B038
:102C000010BDFFFF30B50E2485B005002200002165
:102C1000684601F00FFC6A460B4B538013239380E8
:102C20000C3BD380063B138101F01CFB0A236B4451
:102C30001880000C58806A4628002100FFF708FF22
:102C4000002005B030BDC0469D08000013B5134CF0
:102C500023681B78FF2B02D1114B1B68236023686C
:102C60001978002907D10F4B01AA04310193FFF70E
:102C7000EFFE002016BDDA1C02395878FFF7E8FE97
:102C800023681A7801329B18054A236012681100E4
:102C900014318B42EDD32260EBE7C046D000001028
:102CA000D40000100B0001007FB500281ED00029C1
:102CB00025D00D7801281ADD861E8C1C22003100DB
:102CC0002800FEF76FF900281BD03F2D0AD80623F5
:102CD00000930D4B220031002800FFF78BFE0028E7
:102CE00006D17FBD07230093084BF3E70500084892
:102CF000039003AA04212800FFF7AAFEF1E70D00C4
:102D0000F5E70448F4E7C0465C0000100800001036
:102D10000D0001000F000100F0B5002687B00391FF
:102D2000284902934B7801920A781B021A438B7848
:102D300080241B041343CA78350012061A43170077
:102D40000090204AD37A917A1B020B43A34202DC03
:102D5000280007B0F0BD052304AA21001A4800F09E
:102D6000B9FF049B039A1B0AFF1804AB1B7893421C
:102D70001CD1019B002B06D004AB1B79002B1BD070
:102D8000631D019A1360029B002B03D004AB1B79D7
:102D9000029A13700C9B002B00D01E600D9B002B21
:102DA00000D01F60009B002B09D1012504AB1B79CB
:102DB00001360533E418C4E701235B42E1E7009DD7
:102DC000C6E7C046D80000100040034070B5002898
:102DD00006D098230022DB0080211E4800F0AAFFC5
:102DE0001D4C0C2322001D491A4800F073FF637824
:102DF00025781B022B43A5782D042B43E5782D065F
:102E00001D4318D1164801F09DF9FF26030C3340ED
:102E10000100A370A3718023020A31403240000EEA
:102E20005B4221706270E07021716271E071257205
:102E30006572A372E572E37AA27A1B021343803BA8
:102E4000084A9BB2934204D980235B42A3720023B9
:102E5000E37270BD00400340D8000010340500004C
:102E600000400540B30400001FB501AC0C23220054
:102E70001749184800F02EFF174A517813780902B5
:102E8000194393781B041943D3781B060B4301990C
:102E90008B4213D1517913790902194393791B0499
:102EA0001943D3791B060B4361688B4206D1D37A51
:102EB000907A61891B020343994204D00C23044990
:102EC000044800F02FFF0121024800F0FFFE1FBD63
:102ED0003405000000400340D8000010034B021EE0
:102EE000186801D01A607047014AFBE78C00001097
:102EF000690700000B00F0B516005A1E9341002729
:102F000087B02E4C019103905B421E40E37AA27A77
:102F10001B02134305339B192949DA0F99427A4161
:102F2000D2B202928B4246DC264801F00BF96A4687
:102F3000127B04AB1A701E7162792379120213435B
:102F4000A279217A12041A43E37905001B061A4379
:102F5000637A1B020B439B1A049A1B18D2B21B0202
:102F600013430493E17AA37A0902194304AA0523BF
:102F700015482772677200F0D5FEBE4209D0E17A8B
:102F8000A37A0902194305313300019A0E4800F073
:102F9000C9FE0A4AD37A917A1B020B4305339E1964
:102FA000B6B22B0A96721571360A53712B0C2D0E80
:102FB000D6729371D571029807B0F0BDD800001099
:102FC000330500000040054000400340F0B50026F6
:102FD00089B02F4B019200961D68059102230121B3
:102FE000049003925B42320049423000A84780249B
:102FF0000700350027494B780A781B021A438B7863
:103000001B041343CA7812061A430292002F06D0FB
:10301000204AD37A917A1B020B43A3420DDC002095
:10302000039B009001931A4B02001C6801235B4232
:103030001900A047300009B0F0BD052306AA210001
:10304000154800F047FE069B029A1B0AD31802930C
:10305000049B9D4215D3059B9D4212D8012104ABD0
:103060001A7B0B4B49421F6804AB187A002A00D028
:10307000611D039B01360193029B00932B00B8470F
:10308000070006AB1B7901350533E418BEE7C046DF
:103090008C000010D80000100040034013B5049CC1
:1030A0000093019413000A0001000120FFF734FE91
:1030B00016BD13B5049C0093019413000A0001008F
:1030C0000020FFF729FE16BDF0B503000F292ED80A
:1030D0000088002824D0002210000124A4461E7B72
:1030E000002E0FD11F88002F21D05D886C1CA4B248
:1030F0005C805D196D7BDD72A74201D15E801E8010
:1031000080241C731C7BDD7A400080B2254201D0F4
:1031100065462843640801321C738A42DFDBF0BD38
:1031200001241D7B4A1E94400200A542D5DA0148C5
:10313000F5E7C046FFFF0000842210B5D20004006E
:1031400000210D3001F076F9002323806380A380F5
:10315000E38023816381237310BD70B505001E00D9
:10316000002818D0002916D0002B14D02024008865
:10317000241A02D101201C6070BD944200D91400B1
:103180000D302818220001F04DF92B8800201B1962
:103190002B803460F0E701204042EDE7F0B585B0C8
:1031A00004000E0002921D00002800D1A1E00029B9
:1031B00000D19EE0002B00D19BE000232B60A37A7E
:1031C0000093062B00D997E0180001F025FA0410AF
:1031D00038435355630001212000FFF775FF474A2C
:1031E0000023904208D043424341013304E0029B54
:1031F0002A6893420DD80123A372A37A009A9342BE
:10320000DDD1029B2868C01A4342584140B205B044
:10321000F0BD08212000FFF757FF384B9842EAD055
:103220002389C0B25A1C9B059B0DE3182D332281C4
:1032300018702B685A1C2A60F0540023DCE7022126
:103240002000FFF741FF2D4A02239042D4D0000214
:10325000E080CAE708212000FFF736FF274A032352
:103260009042C9D0E388184300230130A380E08056
:103270000533C1E70423BFE704212000FFF724FF43
:103280001E4A05239042B7D0A38818430130A0807E
:103290000623B1E7029B2A689A1A13D0A3889342A7
:1032A00000D91300E2882100039200222D310192FF
:1032B000019A934209D1A288D31A00229BB2A3801B
:1032C000934200D00622A27297E72089039FC01B79
:1032D00080052F68800D085C7A1C2A60F0552789CC
:1032E000019ABF05BF0DC8552089013201302081E8
:1032F000DDE7012040428AE70220FBE7FFFF0000F4
:10330000002809D0827A0123052A03D80388581E91
:1033100083415BB21800704701235B42FAE7F7B5BF
:10332000082914D1847B802C11D1996818680B6806
:103330005C1C0C60C254F7BD01258D40847B2A4281
:1033400002D0457B25434573640804D0847301395A
:103350004C1CF1D1EFE7802585731D6801959D68B0
:103360002F002D686E1C3E60467B019F7E55447386
:10337000EDE770B5847A05000B000289082C0CD9A2
:10338000083C22410824D2B221002800FFF7C7FFE1
:10339000AB7A1B1BAB72200070BD002CFBD0D2B2ED
:1033A000F2E7802210B51201040000210F3001F075
:1033B00041F8002323806380A38023816381A3815C
:1033C0008033A37310BDF7B504001F00002828D078
:1033D000002926D0002B24D0C37ADB0724D4037B1A
:1033E000002B21D180250088ED002D1AADB22E00D2
:1033F000954200D91600B3B201938023DB00C018B8
:1034000080B20F303200201801F00CF82388019AA6
:103410003E60D31823800020954201D101232373FD
:10342000FEBD01204042FBE70220FBE7F0B58FB074
:10343000040004921D00002800D11AE1002900D1E7
:1034400017E1002B00D114E1002A00D114E1002380
:103450000B912B600C920D95237B0093092B00D9C7
:103460000AE1180001F0E0F80201B1000A007E0054
:103470009E00B300C800DA00F10002010120E37AE7
:103480006688034022881021002B00D00100511AC9
:1034900007338E422DDC8023DB00F3189BB20593AB
:1034A0001023921B01930F2A01DC93B20193230096
:1034B0000F330693069A00219446059B6F4A634496
:1034C00002936F4B9446F31832B21BB20992099AD9
:1034D0009A1A19D50A00012A06D96146059B5B1A7A
:1034E00066499BB28B4239D1731C63800023A38051
:1034F00003332373237B009A9342ADD12B68049A44
:103500009342A9D10120B2E0069AD2180392505CEE
:10351000029A525C90421ED1039A1078029A127855
:10352000904218D101200AE0471C0797039F3F5C97
:103530000897029F385C089F874204D10798019F33
:1035400082B29742F0D8914205D299B28C46019945
:103550009142C0D01100013B1BB2B8E7E380A280CA
:103560000323C6E70D9B1A680C9B01930199032363
:103570008A42BED2A388002B07D101220BAB1100D7
:103580002000FFF7CCFE0423B3E70BAB00220121A0
:103590002000FFF7C4FEE388013B23810A23A372C6
:1035A000053BA6E70D9B1A680C9B01930199042328
:1035B0008A429ED2324A638808219B189BB2E31844
:1035C000DA7B20000BABFFF7AAFE022391E70D9BED
:1035D0000C9A1B680192934201D3052389E70BA93A
:1035E0002000FFF7C6FE0028F7D1A388013B238106
:1035F0000423A37206237CE70D9B0C9A1B6801929F
:103600009342F7D20BA92000FFF7B3FE0028F1D1B7
:103610006388A288A0809B186380D6E78023668891
:103620001B019A1B80232000DB00991B89B2154BDC
:10363000611A92B2C9180F3000F0F8FE00222388F8
:1036400062809E1B2680227354E7A27B0923802A76
:103650000BD00D990C980A68013B824205D20B9B56
:10366000607B551C0D6098540923237300200FB014
:10367000F0BD01204042FAE70220FBE7FFFF000017
:10368000FF0300000F04000000280DD00122C37AC0
:103690001343C372037B002B00D10273007B0938F4
:1036A000431E984140B2704701204042FBE7FFFFB4
:1036B000F0B5244C0D00A544009004A801921F0011
:1036C0000026FFF76EFE002D01DC01242DE0002313
:1036D0002A000293009902AB04A8FFF774FE44424B
:1036E0004441029B009AE4B2D2180092ED1A06D12E
:1036F00004A8FFF7C9FF01384342584104400023A2
:103700003A000393019903AB04A8FFF78FFE039BD4
:10371000019AFF1AD2180192F618012801D1002B44
:10372000EDDC434258410440CDD104A8FFF7ACFF83
:10373000002801D1002C00D100263000024B9D440E
:10374000F0BDC046DCF7FFFF24080000F0B5254CB3
:103750000D00A544009004A801921F000026FFF769
:10376000EBFC002D01DC012430E000232A00029351
:10377000009902AB04A8FFF7F0FC44424441029BCD
:10378000009AE4B2D2180092ED1A06D104A8FFF70D
:10379000B7FD013843425841044000233A000393E7
:1037A000019903AB04A8FFF7F9FC039A019BBF1A28
:1037B0009B180193B6180023012801D19A42ECDC32
:1037C0000122C0B282425B411C40CAD104A8FFF76B
:1037D00097FD002801D1002C00D100263000024BBB
:1037E0009D44F0BDBCFBFFFF4404000010B5012464
:1037F0008440002915D0FF2301391B044A074905DD
:103800001940120C114348220A430100094800F0F4
:1038100045FBA0218022C90512028B581C438C5005
:1038200010BDA0218022C90512028B58A3438B50E2
:10383000F6E7C04600400440F0B50A2187B03048A2
:1038400000F020FB0B2102902D4800F01BFB0390A1
:1038500000F046FC0490002000F036FC00250A270A
:10386000284B0326EC5C38002300334019000093FA
:10387000FFF7BCFFA308334019000B200193FFF7AB
:10388000B5FF012000F0C4FB380000F027F900F07C
:103890000BFC0590002000F0BBFB00213800FFF777
:1038A000A5FF00210B20FFF7A1FF059B9B0620D55C
:1038B000009B0199144A9B00890098588B58210954
:1038C0000E40B600A409B158A400C318A4585B1850
:1038D0001C19029A0A210A4800F0E0FA039A0B2107
:1038E000074800F0DBFA049800F0EEFB200007B078
:1038F000F0BD01350A2DB3D101246442E9E7C04689
:1039000000400440EC480000DC48000010B52F489F
:1039100000F0B2FAA020C00500F017FA1022002132
:103920002A4800F0BBFA08220121284800F0B6FA24
:1039300008220221254800F0B1FA08220321234879
:1039400000F0ACFA08220421204800F0A7FA08226F
:1039500005211E4800F0A2FA082206211B4800F0AB
:103960009DFA08220721194800F098FA0822174802
:10397000110000F093FA10220921144800F08EFA89
:10398000134B144A1B68934202D0134A934215D139
:1039900008220A210D4800F081FA08220B210B4869
:1039A00000F07CFA0D4800F0ABFB0D4800F054F934
:1039B0000C4800F0A5FA00F027F810BD0A220348D1
:1039C000110000F06BFA0A22E8E7C046004004400C
:1039D000FC020000214365876587214300400540C4
:1039E0000040034000800540C30707D5FF23A02205
:1039F000C90119400233D205FF33D150704710B5C9
:103A00000021FFF7F1FF10BD10B500220721074884
:103A100000F044FAA02180228023C90512028858B0
:103A200003438B500120FFF7EAFF10BD0040044024
:103A300010B5802800DD8020002340100CD10E241A
:103A4000064A5B005062116A2340A1430B43136294
:103A500001235062536210BD0133EEE70080044041
:103A60000120034B1B6A1B075B0F98407047C04641
:103A70000080044010B50100024800F04FFDFFF740
:103A8000D7FF10BD00127A0010B5FFF7E9FF010063
:103A9000014800F043FD10BD00127A0070B505002A
:103AA000FFF7F2FFFA240100084800F037FDA400F8
:103AB0006C430100200000F034FD02B4E138FF380F
:103AC000011C0339FDDC02BC70BDC04600CA9A3B34
:103AD00010B5002801D0FFF7E1FF10BD70B5FA2541
:103AE00004002D01AC4205DCFA2080006043FFF7A2
:103AF000EFFF70BD0248FFF7D1FF024BE418F1E77A
:103B000000093D0060F0FFFFFF280ADC022809DC05
:103B100000220121054B1860054B1A6019601A60DC
:103B20007047FF20FE231840F2E7C046D8800440CB
:103B3000D4800440034B0449DA6F08401043D8672F
:103B40007047C04604800440FCBF1D00034A04497E
:103B5000D36F08408343D3677047C0460480044056
:103B6000FCBF1D0003231840054B01211A00D03271
:103B700010600022D4331A6019601A607047C04682
:103B8000008004400F4910B50B68002B19DBC022E0
:103B90005B1092055B009B1800220C1D105B985275
:103BA0000232402AFAD1084B08483C3A1A50FE2407
:103BB00006202401186018591042FCD001235B42F2
:103BC0000B6010BDEC0B001000400340E80F00003C
:103BD000F7B50700160000910193002E00DCF7BD39
:103BE0001C4C2368002B0DDA3F23F9171940C02322
:103BF0002000C919891189019B0502C04022C918FA
:103C000000F010FC23680025FB1A3F2B0FD8402240
:103C10003500D21A964200DD1500201DC018019B08
:103C2000002B11D0009B2A00197800F003FC019BA7
:103C30007F19002B02D1009B5B190093761B002E8D
:103C4000CBDDFFF79FFFC8E72A00009900F0EAFBF1
:103C5000EDE7C046EC0B0010C02010B54003FFF7A5
:103C600069FF042000F0B2FA082000F0C3FA6420D3
:103C7000FFF72EFF042000F0B3FAFFF705FF084B13
:103C80000849C01800F04AFC0138002800DC012077
:103C90000122054B52425861044B1A6010BDC046C8
:103CA000D7B80500D8B8050000400340EC0B001061
:103CB00010B5FFF767FF042000F088FA082000F035
:103CC000A5FAC0204003FFF741FF10BD10B5FFF774
:103CD00059FF10BD70B51D00C02314009B050E00D8
:103CE0002A00C918200000F09DFB0D4B1868002821
:103CF00014DB191DB04206DA301A09184433994210
:103D00000CD2200001E0801B20186419844205D9E0
:103D1000221A402A00DD402200F084FB70BDC0461C
:103D2000EC0B001010B5080011001A000023FFF77B
:103D30004FFF10BD13B514001A006B460800D91DC3
:103D400001230C70FFF744FF13BD10B54020FFF7AF
:103D5000F1FE10BD30B589B010220021040004A886
:103D600000F068FBFF230393C53B029300F05AFA6F
:103D70000025030703D40C48FFF79AFF013503A978
:103D800002A80A4B9847002D02D00748FFF764FFAE
:103D9000049B2360059B6360069B0193A360079BC4
:103DA000E36009B030BDC04600400340F11FFF1F73
:103DB0001FB5FF230093CD3B01930290039101A80F
:103DC0006946034B9847009BD8B205B000BDC0467A
:103DD000F11FFF1F7FB5FF230193CB3B029303909D
:103DE000049102A8059201A9024B9847019BD8B201
:103DF00007B000BDF11FFF1F7FB5FF230193C43B38
:103E000002930390049102A8059201A9024B9847DE
:103E1000019BD8B207B000BDF11FFF1F10B5FF24F2
:103E200086B00094CC3C02910390059301A80194C4
:103E300004926946024B9847009BD8B206B010BD69
:103E4000F11FFF1F10B51C00002386B00193FF3344
:103E50000093C73B0293039004910592694602A820
:103E6000044B9847002C01D0019B2360009BD8B2E3
:103E700006B010BDF11FFF1F802010B5C002FFF774
:103E800059FE10BD890008580002000A704704302E
:103E9000C36F090109098B43C367704770B50600FA
:103EA0000D0014000B2907D9012A05D10B001100C0
:103EB0000C3B9940FFF7EBFF2402AD00240AAC5104
:103EC00070BD4068C0B27047C905C90D81617047B7
:103ED0008069C005C00D7047C069C005C00D70473E
:103EE00030B50825054AC36914682B40C905C90DBA
:103EF000234313604162416230BDC046E4000010BC
:103F0000030070B5FE22002504000448FC335A600B
:103F100003498561FFF7E4FF256070BD008005401F
:103F2000FF010000043101617047FFFFF8B50C4B41
:103F300004000F001600984202D190231B011F437A
:103F4000084D22002900084800F058FA0300BB433E
:103F5000334329002200044800F041FAF8BDC0466E
:103F600000800340E80000102080034010B51400DA
:103F7000902212010A43024305490648FFF7D6FF83
:103F80000421054B1A698A4322431A6110BDC046B9
:103F9000FF3FF1FF0080034000ED00E001214140C0
:103FA00010B5490304220220FFF7E0FF30BF0022D2
:103FB00011001000FFF7DAFF10BDFFFF10B50B4C2A
:103FC0000B4A21000B4800F019FA902380221B01B4
:103FD00003401201FF20934206D1074A2100054801
:103FE00000F00CFAC006800F10BDC046E8000010BB
:103FF000008003402080034018800340802110B5DA
:10400000C9010A000148FFF791FF10BD008003407D
:1040100002008021501E824110B5D20309020248DD
:10402000FFF784FF10BDC0460080034002008021DE
:10403000501E824110B5D20409030248FFF776FFF3
:1040400010BDC04600800340F8B5170000258C0065
:10405000061BBD4200DBF8BD044B0549E2180548CC
:10406000335900F0BCF901350434F2E70480034011
:10407000E800001020800340F8B5170000258C00F0
:10408000061BBD4200DBF8BD044B0549E21805489C
:1040900000F0B4F9013530510434F2E704800340F4
:1040A000E80000102080034010B5044A0449054888
:1040B00000F0A4F9A023184010BDC04618800340AA
:1040C000E8000010208003400122802110B542400A
:1040D000520389010148FFF729FF10BD008003400A
:1040E00010B5044A0449054800F088F9430B012043
:1040F000984310BD00800340E8000010208003407A
:10410000802010B5C000FFF715FD10BD072310B5C6
:1041100002000B400248034900F061F910BDC0469F
:1041200024400540EC000010020010B50B021B0AF1
:104130000C320249024800F052F910BDEC000010A8
:1041400024400540020010B530320249024800F018
:1041500055F910BDEC00001024400540020010B5D8
:104160000B0030320249034800F039F910BDC04657
:10417000EC000010244005400200012310B50B4064
:1041800014320249024800F02AF910BDEC00001078
:1041900024400540020010B518320349034800F0DE
:1041A0002DF90123184010BDEC00001024400540FB
:1041B0000200012310B50B4020320249024800F0F2
:1041C0000EF910BDEC000010244005400F21034AF9
:1041D00008405368834353607047C04600800440E2
:1041E0000F21034B08405A68104358607047C0467F
:1041F000008004408E2210B53F24034992008B5862
:10420000204083438B5010BD008004408E2310B5A6
:104210003F24034A9B00D15820400843D05010BD92
:10422000008004408E23034A9B00D058FA3BFF3B9A
:1042300018407047008004408123034AC004C00C2A
:104240009B00D0507047C046008004408223044A3F
:10425000C0049B00C00CD050D1588143D15070474E
:1042600000800440FD23024A9B00D0587047C0469E
:104270000080044010B50800FFF75CFC10BD002270
:104280004368426001328260013242608268002AE3
:10429000FCD143607047FFFF10B504000220FFF718
:1042A000A9FF80204001FFF745FC002323606362E3
:1042B000073323630833E36080231B02E361014B70
:1042C000236210BDFF7F0000002310B543628020F1
:1042D0004001FFF73BFC0220FFF798FF10BD0E22C4
:1042E000C3684900114093431943C1607047C068D7
:1042F0000007400F704701230268134303607047B3
:10430000802310B5802402685B0012021A40836A81
:10431000A4005B0223401A43E23C8368FF3C234035
:104320001343002903D082681206520F0A7098B214
:1043300010BD406800B270470A235843074B10B5C0
:10434000C0184843002806DD4130FF30A021890015
:1043500000F0E4F810BD4138FF38F7E72055FDFFC5
:10436000072319404162704772B6AA22024B9A6035
:10437000553A9A6062B670470040004010B504009C
:104380000020FFF7EFFBFE20FFF7BEFB80200001BF
:10439000FFF7D0FB03220548054B604358601968BE
:1043A0000A431A60FFF7E0FF10BDC046C21E0000BE
:1043B00000400040BFF34F8F024B034ADA60BFF367
:1043C0004F8FFEE700ED00E00400FA05A423012270
:1043D0000168114202D1013B002BF9D17047F8B5B9
:1043E0000D0016001F000400FFF7F0FF2B682000EF
:1043F00001332B603760FFF7E9FFF8BDF8B5060021
:104400000C0015000B6801330B603000FFF7DEFF76
:10441000300027682B68FFF7D9FF28682368BB4264
:10442000F3D1F8BD10B500F0B6F810BD10B500F02E
:10443000C8F810BD10B500F0D2F810BD10B5FCF7EB
:10444000B5F810BD03000B4330B59B0707D000241F
:10445000A2420BD100200FE004300431043A032AB9
:10446000F5D903680C68A342F6D0F0E7035D651C3C
:104470000C5DA34201D0181B30BD2C00E8E7FFFF04
:1044800003000B4330B59B0715D00023CA5CC25410
:104490000133002AFAD130BD04C304310A68074C45
:1044A000141994432C42F7D0D1B21970013300296A
:1044B000F1D01212F8E70300014DEFE7FFFEFEFE18
:1044C00080808080032110B5421C084218D1114C15
:1044D0000368114959189943214219D0DCB2411C93
:1044E000002C0BD0FF242402811C234206D0FF2184
:1044F00009040B40591E8B41C318D91C881A04E0CB
:10450000431C0078002801D1981A10BD1800DCE780
:104510000430DDE780808080FFFEFEFE03000B4359
:1045200021D4002931D00122D207030901E0090179
:1045300012099942FBD9430801E049005208994207
:10454000FBD900E04908401A07D35241FAD301468B
:104550001046704749084018F7D29218FAD340180D
:10456000014610467047CB0F00D04942021000D5DB
:104570004042534008B5FFF7D4FF0CBC521000D3A3
:104580004042002A00D549421847F446002000F076
:1045900001F8604770478446830708D18B0706D12E
:1045A000131F04D304C904C0043BFBD21A1D52429A
:1045B00005D0891A801A8B5C83540132FBD1604686
:1045C0007047884207D98B18834204D9013A8B5C23
:1045D0008354FBD1704700B5FFF7DDFF00BD844673
:1045E000043A09D3830707D109060B0A19430B0CB8
:1045F0001943043A02C0FCD2043203D001700130E6
:10460000013AFBD1604670478C4671460139095624
:1046100049008E44614670478C4671460139095CF9
:1046200049008E44614670478C46411E7144095AC8
:1046300049008E446146704700009FFF7F000700DD
:1046400000600000000F6E2F700043757272656E7F
:10465000742074656D70657261747572653A205F5F
:104660005F5F2E5F430A4D696E696D756D3A205F1D
:104670005F5F2E5F430A4D6178696D756D3A205F0B
:104680005F5F2E5F430043757272656E74207465C0
:104690006D70657261747572653A205F5F5F2E5F41
:1046A00043006461797300FF1A470000354700003A
:1046B0005C4700007A470000A9470000C847000097
:1046C000F6470000234800003C4800006648000010
:1046D00090480000AF48000000000000000000000B
:1046E00000000000000000000000000000000000CA
:1046F00000000000000000000000000000000000BA
:1047000000000000686F757273006D696E757465E6
:1047100073007365636F6E647300456D7074792EFA
:10472000204E6F742079657420636F6E66696775BB
:104730007265642E00456D7074792E20436F6E662D
:1047400069677572656420627574206E6F74207974
:10475000657420737461727465642E0052756E6E98
:10476000696E672E204E6F2073616D706C652074CA
:10477000616B656E207965742E0052756E6E696E80
:104780006720666F72205F5F5F205F5F5F5F5F5FC4
:104790005F2E205F5F5F5F5F2073616D706C65737C
:1047A000206C6F676765642E0053746F707065646A
:1047B0002E205F5F5F5F5F2073616D706C6573209B
:1047C0006C6F676765642E00414C4552543A206611
:1047D000697273742068696768206578637572739D
:1047E000696F6E206166746572205F5F5F205F5F36
:1047F0005F5F5F5F2E00414C4552543A20666972FC
:104800007374206C6F7720657863757273696F6E4F
:10481000206166746572205F5F5F205F5F5F5F5F2E
:104820005F2E00414C4552543A20626174746572A7
:104830007920697320656D7074792E00414C455262
:10484000543A206E6F207370616365206C656674E6
:1048500020666F722073746F72696E672073616D6A
:10486000706C65732E00414C4552543A2073746F3E
:104870007070656420616674657220746865206379
:104880006F6E666967757265642074696D652E0068
:10489000414C4552543A206C617374204932432094
:1048A000616363657373206661696C65642E0041A2
:1048B0004C4552543A206C61737420535049206126
:1048C0006363657373206661696C65642E00FFFF26
:1048D0000103E80E46FD0100030000000000000097
:1048E000C10200000F0300004403000000010203A6
:0848F0000506070A0B0FFFFF8C
:1048F80001FFFFFFA218F76146000000D90E000073
:1049080048000000310B000049000000810C000045
:10491800500000004D0C00005A000000FD0A000085
:104928005B000000C90B00005E0000003D0F0000A6
:10493800656E00742F64656D6F2E6E68732E6E78C9
:104948007000000000FFFFFF53030000010000009B
:104958004D2C000002000000052C0000090000009A
:10496800E92B00000A000000C12B00000B0000002A
:104978008D2B00000C000000452B0000690700008B
:0400000300000741B1
:00000001FF
