:10000000F01F0010290100007106000071060000B9
:100010007106000071060000710600007106000004
:1000200071060000710600007106000071060000F4
:1000300071060000710600007106000071060000E4
:1000400071060000710600007106000071060000D4
:1000500071060000710600007106000071060000C4
:1000600071060000710600007106000071060000B4
:1000700071060000710600007106000071060000A4
:100080007106000071060000710600007106000094
:100090007106000071060000710600007106000084
:1000A0007106000071060000710600007106000074
:1000B0007106000071060000710600007106000064
:1000C0000C070000000000100000000000000010FD
:1000D00004000000F0B5114B114CA34204D30024DE
:1000E000104883420FD3F0BD196858680A009E6813
:1000F000401A8718551AAE4201D80C33EDE715683F
:1001000004323D60F5E719685E680A00551AAE4290
:1001100001D80833E5E714600432F7E7C0000000B7
:10012000CC000000D400000010B5FFF7D3FF00F0B2
:10013000ABFABFF34F8F034B034ADA60BFF34F8F25
:10014000FEE7C04600ED00E00400FA05FFFFFFFFF8
:10015000FFFFFFFFFFFFFFFFFFFFFFFFFFFFFFFFAF
:10016000FFFFFFFFFFFFFFFFFFFFFFFFFFFFFFFF9F
:10017000FFFFFFFFFFFFFFFFFFFFFFFFFFFFFFFF8F
:10018000FFFFFFFFFFFFFFFFFFFFFFFFFFFFFFFF7F
:10019000FFFFFFFFFFFFFFFFFFFFFFFFFFFFFFFF6F
:1001A000FFFFFFFFFFFFFFFFFFFFFFFFFFFFFFFF5F
:1001B000FFFFFFFFFFFFFFFFFFFFFFFFFFFFFFFF4F
:1001C000FFFFFFFFFFFFFFFFFFFFFFFFFFFFFFFF3F
:1001D000FFFFFFFFFFFFFFFFFFFFFFFFFFFFFFFF2F
:1001E000FFFFFFFFFFFFFFFFFFFFFFFFFFFFFFFF1F
:1001F000FFFFFFFFFFFFFFFFFFFFFFFFFFFFFFFF0F
:10020000FFFFFFFFFFFFFFFFFFFFFFFFFFFFFFFFFE
:10021000FFFFFFFFFFFFFFFFFFFFFFFFFFFFFFFFEE
:10022000FFFFFFFFFFFFFFFFFFFFFFFFFFFFFFFFDE
:10023000FFFFFFFFFFFFFFFFFFFFFFFFFFFFFFFFCE
:10024000FFFFFFFFFFFFFFFFFFFFFFFFFFFFFFFFBE
:10025000FFFFFFFFFFFFFFFFFFFFFFFFFFFFFFFFAE
:10026000FFFFFFFFFFFFFFFFFFFFFFFFFFFFFFFF9E
:10027000FFFFFFFFFFFFFFFFFFFFFFFFFFFFFFFF8E
:10028000FFFFFFFFFFFFFFFFFFFFFFFFFFFFFFFF7E
:10029000FFFFFFFFFFFFFFFFFFFFFFFFFFFFFFFF6E
:1002A000FFFFFFFFFFFFFFFFFFFFFFFFFFFFFFFF5E
:1002B000FFFFFFFFFFFFFFFFFFFFFFFFFFFFFFFF4E
:1002C000FFFFFFFFFFFFFFFFFFFFFFFFFFFFFFFF3E
:1002D000FFFFFFFFFFFFFFFFFFFFFFFFFFFFFFFF2E
:1002E000FFFFFFFFFFFFFFFFFFFFFFFFFFFFFFFF1E
:1002F000FFFFFFFFFFFFFFFFFFFFFFFFFFFFFFFF0E
:1003000010B500F015F8FA20800000F0EDF8012299
:100310000648110000F050F9032000F007F9012011
:1003200000F0A4F8FA2000F0DFF8F8E700400440FD
:1003300010B52F4800F033F9A020C00500F02AF9CD
:10034000102200212A4800F037F90822012128480C
:1003500000F032F908220221254800F02DF9082288
:100360000321234800F028F908220421204800F046
:1003700023F9082205211E4800F01EF90822062153
:100380001B4800F019F908220721194800F014F958
:1003900008221748110000F00FF910220921144813
:1003A00000F00AF9134B144A1B68934202D0134A17
:1003B000934215D108220A210D4800F0FDF80822C9
:1003C0000B210B4800F0F8F80D4800F02BF90D4810
:1003D00000F0B4F80C4800F013F900F033F810BD49
:1003E0000A220348110000F0E7F80A22E8E7C046B5
:1003F00000400440FC0200002143658765872143DB
:10040000004005400040034000800540C30707D579
:10041000FF23A022C90119400233D205FF33D15076
:1004200070470123184006D0A0228023D2059B00EC
:10043000D058431E9841704710B50021FFF7E6FFE2
:1004400010BDFFFF10B500220721074800F0B4F8E7
:10045000A02180228023C9051202885803438B50B3
:100460000120FFF7E9FF10BD0040044010B5040073
:10047000FFF7D7FFC1432000FFF7C8FF10BDFFFF04
:100480000120034B1B6A1B075B0F98407047C04657
:100490000080044010B5FFF7F3FF0100014800F0B1
:1004A000F7F810BD00127A0070B50500FFF7F2FFF3
:1004B000FA240100084800F0EBF8A4006C430100A6
:1004C000200000F0E8F802B4E138FF38011C0339DD
:1004D000FDDC02BC70BDC04600CA9A3B10B50028C6
:1004E00001D0FFF7E1FF10BD70B5FA2504002D0122
:1004F000AC4205DCFA2080006043FFF7EFFF70BDDF
:100500000248FFF7D1FF024BE418F1E700093D0074
:1005100060F0FFFF034B0449DA6F08401043D867CF
:100520007047C04604800440FCBF1D0007231840EC
:10053000014B18607047C046E8800440C02010B5E9
:100540004003FFF7E7FF042000F072F8082000F0F6
:1005500083F86420FFF7C2FF042000F073F8FFF770
:1005600099FF084B0849C01800F092F8013800289C
:1005700000DC01200122054B52425861044B1A60F5
:1005800010BDC046D7B80500D8B8050000400340EC
:100590000400001010B54020FFF7BCFF10BD802004
:1005A00010B5C002FFF7B6FF10BD0430C36F0901DC
:1005B00009098B43C367704770B506000D0014002E
:1005C0000B2907D9012A05D10B0011000C3B9940DA
:1005D000FFF7EBFF2402AD00240AAC5170BDFFFF12
:1005E00030B50825054AC36914682B40C905C90DF3
:1005F000234313604162416230BDC04600000010D9
:10060000030070B5FE22002504000448FC335A6044
:1006100003498561FFF7E4FF256070BD0080054058
:10062000FF010000802010B5C000FFF773FF10BD70
:100630000F21034A08405368834353607047C04604
:10064000008004400F21034B08405A681043586053
:100650007047C046008004408E2210B53F240349F5
:1006600092008B58204083438B5010BD0080044083
:10067000BFF34F8F024B034ADA60BFF34F8FFEE7A1
:1006800000ED00E00400FA0510B5FFF739FE10BDDB
:1006900003000B4321D4002931D00122D2070309E2
:1006A00001E0090112099942FBD9430801E0490020
:1006B00052089942FBD900E04908401A07D3524139
:1006C000FAD301461046704749084018F7D29218ED
:1006D000FAD34018014610467047CB0F00D049426C
:1006E000021000D54042534008B5FFF7D4FF0CBCC0
:1006F000521000D34042002A00D549421847F44620
:0C070000002000F001F860477047FFFF88
:0400000300000129CF
:00000001FF
