:10000000F01F00103D010000290700002907000033
:100010002907000029070000290700002907000020
:100020002907000029070000290700002907000010
:100030002907000029070000290700002907000000
:1000400029070000290700002907000029070000F0
:1000500029070000290700002907000029070000E0
:1000600029070000290700002907000029070000D0
:1000700029070000290700002907000029070000C0
:1000800029070000290700002907000029070000B0
:1000900029070000290700002907000029070000A0
:1000A0002907000029070000290700002907000090
:1000B0002907000029070000290700002907000080
:1000C000CC0700000000001000000000000000103D
:1000D0000400000010B5002304E004680C60043341
:1000E000043004319342F8D310BD002303E0002212
:1000F0000260043304308B42F9D3704710B50C4BC7
:1001000007E0186859681C000C349A68FFF7E2FF92
:100110002300084A9342F4D306E018681C00083410
:100120005968FFF7E2FF2300034A9342F5D310BD5D
:10013000C0000000CC000000D400000010B5FFF7A4
:10014000DDFF00F0FFFA00BEBFF34F8F024B034A02
:10015000DA60BFF34F8FFEE700ED00E00400FA0520
:10016000FFFFFFFFFFFFFFFFFFFFFFFFFFFFFFFF9F
:10017000FFFFFFFFFFFFFFFFFFFFFFFFFFFFFFFF8F
:10018000FFFFFFFFFFFFFFFFFFFFFFFFFFFFFFFF7F
:10019000FFFFFFFFFFFFFFFFFFFFFFFFFFFFFFFF6F
:1001A000FFFFFFFFFFFFFFFFFFFFFFFFFFFFFFFF5F
:1001B000FFFFFFFFFFFFFFFFFFFFFFFFFFFFFFFF4F
:1001C000FFFFFFFFFFFFFFFFFFFFFFFFFFFFFFFF3F
:1001D000FFFFFFFFFFFFFFFFFFFFFFFFFFFFFFFF2F
:1001E000FFFFFFFFFFFFFFFFFFFFFFFFFFFFFFFF1F
:1001F000FFFFFFFFFFFFFFFFFFFFFFFFFFFFFFFF0F
:10020000FFFFFFFFFFFFFFFFFFFFFFFFFFFFFFFFFE
:10021000FFFFFFFFFFFFFFFFFFFFFFFFFFFFFFFFEE
:10022000FFFFFFFFFFFFFFFFFFFFFFFFFFFFFFFFDE
:10023000FFFFFFFFFFFFFFFFFFFFFFFFFFFFFFFFCE
:10024000FFFFFFFFFFFFFFFFFFFFFFFFFFFFFFFFBE
:10025000FFFFFFFFFFFFFFFFFFFFFFFFFFFFFFFFAE
:10026000FFFFFFFFFFFFFFFFFFFFFFFFFFFFFFFF9E
:10027000FFFFFFFFFFFFFFFFFFFFFFFFFFFFFFFF8E
:10028000FFFFFFFFFFFFFFFFFFFFFFFFFFFFFFFF7E
:10029000FFFFFFFFFFFFFFFFFFFFFFFFFFFFFFFF6E
:1002A000FFFFFFFFFFFFFFFFFFFFFFFFFFFFFFFF5E
:1002B000FFFFFFFFFFFFFFFFFFFFFFFFFFFFFFFF4E
:1002C000FFFFFFFFFFFFFFFFFFFFFFFFFFFFFFFF3E
:1002D000FFFFFFFFFFFFFFFFFFFFFFFFFFFFFFFF2E
:1002E000FFFFFFFFFFFFFFFFFFFFFFFFFFFFFFFF1E
:1002F000FFFFFFFFFFFFFFFFFFFFFFFFFFFFFFFF0E
:1003000010B500F015F8FA20800000F039F901224C
:100310000121064800F0A4F9032000F059F901205A
:1003200000F0EEF8322000F02BF9F8E7004004402E
:1003300010B5324C200000F086F9A020C00500F076
:100340007DF910220021200000F08AF90822012105
:10035000200000F085F908220221200000F080F939
:1003600008220321200000F07BF90822042120004C
:1003700000F076F908220521200000F071F908222A
:100380000621200000F06CF908220721200000F06F
:1003900067F908220821200000F062F910220921E3
:1003A000200000F05DF9164B1B68164A93420ED0F0
:1003B000154A93420BD0114C0A220A21200000F06A
:1003C0004FF90A220B21200000F04AF90AE00B4CF9
:1003D00008220A21200000F043F908220B21200006
:1003E00000F03EF9094800F079F9094800F0F8F802
:1003F000084800F05DF900F05FF810BD00400440CF
:10040000FC020000214365876587214300400540C9
:100410000040034000800540F0B50023002B00DDC4
:10042000F0BD02001A41D20716D50C4F9A00D55DD7
:10043000BF187E780A001A4101242240BF78D21BDF
:1004400057427A41D2B22D04A027FF05BC4665442D
:10045000B440B240A40062510133DFE7C807000096
:1004600070B500230021002B01DD080070BD0200E3
:100470001A41D20715D50C4D9C00625D2C19667887
:100480001204A025ED05AC4662440125B540AD003F
:10049000AD586A1E9541A278521B544262419A405F
:1004A00011430133DFE7C046C807000010B5002143
:1004B000FFF7B2FF10BDFFFF70B50024002C03DD75
:1004C0000120FFF7F3FF70BD002207210A4800F06A
:1004D000C7F80A4AA1008B5C521855781B04A02269
:1004E000D20594466344802000021A580121A94095
:1004F0000A431A500134E1E700400440C8070000F5
:1005000010B50400FFF7ACFFC1432000FFF784FFE4
:1005100010BDFFFF034B1A6A520807231340012046
:10052000984070470080044010B5FFF7F3FF0100CA
:10053000014800F00BF910BD00127A0010B5041E3E
:1005400018D00D4B984200D900BEFFF7EDFF010017
:100550000A4800F0FBF8010063011B1B9B001B19FC
:10056000D80000F0F6F8E138FF3802B4011C033976
:10057000FDDC02BC10BDC04600093D0000CA9A3B2C
:1005800010B5040005E00948FFF7D8FF084B9C466A
:100590006444FA231B019C42F5DC63011B1B9B0096
:1005A0001C19E000FFF7CAFF10BDC04600093D005E
:1005B00060F0FFFF10B5044980228B58034C2040A7
:1005C0001843885010BDC04600800440FCBF1D0089
:1005D00007231840014AE133D0507047008004409F
:1005E00010B5C0204003FFF7E5FF042000F07CF8C1
:1005F000082000F08DF86420FFF7A0FF042000F031
:100600007DF8FFF791FF094B9C466044084900F0D4
:100610009DF80138002806DD064B5861064B012283
:1006200052421A6410BD0120F6E7C046D7B8050053
:10063000D8B80500004003400400001010B5402069
:10064000FFF7B8FF10BD10B58020C002FFF7B2FF62
:1006500010BD80228358090109098B4383507047DC
:1006600070B506000D0014000B2901D9012A04D031
:100670002402240AAD00AC5170BD0B000C3B0121DB
:100680009940FFF7E6FFF3E7C905C90D816170479F
:1006900010B5C26908231A40044C23681343236031
:1006A000C905C90D4162416210BDC046000000107D
:1006B00070B5040080235B00FE22C250054D00216E
:1006C0002800FFF7E1FF04492800FFF7E1FF0023BE
:1006D000236070BD00800540FF01000010B5802040
:1006E000C000FFF767FF10BD03494B680F221040A1
:1006F00083434B607047C0460080044003494B6809
:100700000F221040184348607047C04600800440E4
:1007100010B5044C8E21890063583F22104083435A
:10072000635010BD0080044000BEBFF34F8F034BE9
:10073000034ADA60BFF34F8FFEE7C04600ED00E0EA
:100740000400FA0510B5FFF7DBFD10BD03000B43F5
:1007500021D4002931D00122D207030901E0090187
:1007600012099942FBD9430801E049005208994215
:10077000FBD900E04908401A07D35241FAD3014699
:100780001046704749084018F7D29218FAD340181B
:10079000014610467047CB0F00D04942021000D5E9
:1007A0004042534008B5FFF7D4FF0CBC521000D3B1
:1007B0004042002A00D549421847F446002000F084
:0C07C00001F860477047FFFF00070107C9
:040000030000013DBB
:00000001FF
